:100000000C942A000C9447000C9447000C94470071
:100010000C9447000C9447000C9447000C9417086C
:100020000C9447000C9447000C9447000C94470034
:100030000C9447000C9447000C9447000C94470024
:100040000C9447000C9447000C9447000C94470014
:100050000C94470011241FBECFE5D8E0DEBFCDBF12
:1000600010E0A0E6B0E0EEE4F7E202C005900D92E9
:10007000A437B107D9F713E0A4E7B0E001C01D929F
:10008000A037B107E1F70E9449000C94A5130C9426
:100090000000AF92BF92CF92DF92EF92FF920F9348
:1000A000DF93CF93CDB7DEB7EAE3F0E081E0808362
:1000B000E7E3F0E01082A8E3B0E0E8E3F0E080815D
:1000C00081608C9320E630E086E990E0E4E7F0E0A0
:1000D000B90145E550E020E030E003E07F01CC24A9
:1000E000DD24AA24BB240E949B0C26E630E080EB92
:1000F00090E0E6E7F0E0B90145E550E020E030E0CF
:1001000002E07F01CC24DD24AA24BB240E949B0CA6
:100110000E94940E80E090E0CF91DF910F91FF90CC
:10012000EF90DF90CF90BF90AF900895DF93CF9383
:1001300000D0CDB7DEB79A83898388EC90E00E9427
:100140005F0E809178008130C1F7ABE3B0E0EBE364
:10015000F0E0908181E089278C9310927800EDCFB8
:10016000DF93CF9300D0CDB7DEB79A83898384E63F
:1001700090E00E945F0EE6E3F0E080818695882F94
:1001800090E081709070009791F781E08093780003
:10019000EECFDF93CF93CDB7DEB727970FB6F894A6
:1001A000DEBF0FBECDBF9D838C836E834F838AE1FC
:1001B00090E00E94A1039A83898389819A810097A4
:1001C00009F46FC08091790090917A00009741F412
:1001D00089819A8190937A00809379000E943003FC
:1001E0008E81823010F081E08E83E981FA81118E58
:1001F000108EE981FA818E81868BE981FA818F8167
:10020000878BE981FA818C819D81918380838981AB
:100210009A8102960E94370489819A810C960E94E5
:100220003704E981FA8189819A8191878087E98100
:10023000FA8189819A81938B828B8E81282F30E07D
:1002400085E090E0821B930BE981FA819587848792
:10025000E981FA81968980917B00891728F4E981E8
:10026000FA81868980937B00E981FA818689282F2B
:1002700030E0C901880F991F880F991F880F991FB7
:10028000820F931FAC014E575F4F89819A819C0169
:100290002E5F3F4FCA01B9010E94470481E08B8362
:1002A00002C08FEF8B838B8127960FB6F894DEBF49
:1002B0000FBECDBFCF91DF910895DF93CF9300D0D4
:1002C00000D000D0CDB7DEB79C838B837E836D8357
:1002D00020917C0030917D008B819C81820F931F47
:1002E0009A8389838091790090917A0002960E9486
:1002F000FF04E0917900F0917A0089819A819383DB
:10030000828320917C0030917D0089819A818217BF
:10031000930770F48091A8009091A9002091790032
:1003200030917A002E5F3F4FB9010E9493040DC0B7
:100330008091A6009091A7002091790030917A00D9
:100340002E5F3F4FB9010E9493048D819E810097DB
:1003500061F08091790090917A009C01245F3F4F79
:100360008D819E81B9010E94930426960FB6F89460
:10037000DEBF0FBECDBFCF91DF910895DF93CF9346
:1003800000D0CDB7DEB73AC0F894E091AF00F0915D
:10039000B000868197819A83898389819A810C969E
:1003A0000E94FF04789489819A8102960E94FF043A
:1003B000E981FA81968980917B00891728F4E98187
:1003C000FA81868980937B00E981FA818689282FCA
:1003D00030E0C901880F991F880F991F880F991F56
:1003E000820F931FAC014E575F4F89819A819C0108
:1003F0002E5F3F4FCA01B9010E9447048091AA00B5
:10040000882309F0C1CF0F900F90CF91DF9108950D
:10041000DF93CF9300D000D0CDB7DEB70E946D0F31
:1004200020917E0030917F00821B930B909381007E
:100430008093800085C080917C0090917D00019622
:1004400090937D0080937C0080918000909181004A
:100450000197909381008093800080917C0090911F
:100460007D00009709F064C08091A6009091A700DC
:100470009A8389838091A8009091A9009093A70006
:100480008093A60089819A819093A9008093A80007
:100490004FC0E091A600F091A7000580F681E02D05
:1004A000868197819C838B83EB81FC8122813381C0
:1004B00080917C0090917D008217930708F440C0E2
:1004C000F8948B819C8102960E94FF04EB81FC8151
:1004D00084899589009729F08B819C810C960E94D4
:1004E000FF047894EB81FC81968980917B008917C9
:1004F00028F4EB81FC81868980937B00EB81FC8171
:100500008689282F30E0C901880F991F880F991F0D
:10051000880F991F820F931FAC014E575F4F8B813D
:100520009C819C012E5F3F4FCA01B9010E94470484
:10053000E091A600F091A7008081882309F0A9CF5F
:100540008091800090918100009709F074CF809194
:100550007C0090917D0090937F0080937E000F90AF
:100560000F900F900F90CF91DF910895DF93CF936D
:1005700000D0CDB7DEB70E94BE010E9408020AC0BB
:1005800080917B00882309F466C080917B008150B4
:1005900080937B0080917B00282F30E0C901880F79
:1005A000991F880F991F880F991F820F931FFC01B5
:1005B000EE57FF4F8081882319F380917B00282F0D
:1005C00030E0C901880F991F880F991F880F991F64
:1005D000820F931F8E579F4F9A838983E981FA81F7
:1005E0000180F281E02D82819381E981FA819283F9
:1005F0008183E981FA812181328189819A810396FF
:100600002817390759F4E981FA810180F281E02D38
:1006100082819381E981FA8192838183E981FA81E0
:100620000180F281E02D8681978190937A008093FA
:100630007900E0917900F0917A00408151818091B8
:10064000790090917A00E0917900F0917A00278901
:10065000622FFA0109950F900F90CF91DF910895C5
:10066000DF93CF930F92CDB7DEB7198213C0898184
:10067000282F30E0C901880F991F880F991F880F14
:10068000991F820F931F8E579F4F0E940D048981DF
:100690008F5F89838981823050F384E990E00E94E2
:1006A0000D048DE990E00E940D048AEA90E00E941A
:1006B0000D0484E990E09093A7008093A6008DE953
:1006C00090E09093A9008093A8000F90CF91DF91C4
:1006D0000895DF93CF9300D000D00F92CDB7DEB74F
:1006E0009D838C83EC81FD810580F681E02D8681E0
:1006F00097819B838A838A819B810C960E94FF0449
:100700008A819B819C01245F3F4F8AEA90E0B90176
:100710000E944704EA81FB819689E0917900F0917B
:100720007A008689981718F081E0898301C01982C0
:1007300089810F900F900F900F900F90CF91DF91C4
:100740000895DF93CF9300D000D0CDB7DEB79C8360
:100750008B831A8219820E94D70E8091B3009091E8
:10076000B4002B813C81820F931F22E088359207D1
:1007700018F52091B3003091B4008B819C81280F33
:10078000391F8091B3009091B40082179307A0F4B1
:100790008091B3009091B4008B549F4F9A838983CA
:1007A0002091B3003091B4008B819C81820F931F04
:1007B0009093B4008093B3000E94E30E89819A81E4
:1007C0000F900F900F900F90CF91DF910895DF93CE
:1007D000CF9300D0CDB7DEB79A8389830F900F9067
:1007E000CF91DF910895DF93CF93CDB7DEB710920D
:1007F000B4001092B300CF91DF910895DF93CF93AF
:10080000CDB7DEB72091B3003091B40088E592E017
:10081000821B930BCF91DF910895DF93CF9300D08C
:10082000CDB7DEB79A83898389819A810396E9815E
:10083000FA8192838183E981FA818FEF9FEF94831C
:10084000838389819A810396E981FA8196838583DE
:1008500089819A810396E981FA8190878783E9816A
:10086000FA8110820F900F90CF91DF910895DF935E
:10087000CF9300D0CDB7DEB79A838983E981FA811F
:10088000118610860F900F90CF91DF910895DF931E
:10089000CF9300D000D000D0CDB7DEB79C838B8340
:1008A0007E836D83EB81FC81818192819A83898330
:1008B000E981FA8182819381ED81FE819383828334
:1008C000EB81FC8181819281ED81FE81958384831E
:1008D000E981FA810280F381E02D8D819E819583EB
:1008E00084838D819E81E981FA81938382838D81C6
:1008F0009E81EB81FC8192838183ED81FE818B81DE
:100900009C8191878087EB81FC8180818F5FEB8167
:10091000FC81808326960FB6F894DEBF0FBECDBF54
:10092000CF91DF910895DF93CF93CDB7DEB72897AE
:100930000FB6F894DEBF0FBECDBF9E838D83788740
:100940006F83EF81F885808191819A838983898182
:100950009A812FEF8F3F920739F4ED81FE818781D5
:1009600090859C838B8318C08D819E8103969C8388
:100970008B8306C0EB81FC81828193819C838B8376
:10098000EB81FC810280F381E02D2081318189811E
:100990009A818217930770F7EB81FC8182819381A2
:1009A000EF81F88593838283EF81F8850280F3815C
:1009B000E02D8F81988595838483EF81F8858B81E5
:1009C0009C81958384838F819885EB81FC819383BF
:1009D0008283EF81F8858D819E8191878087ED816B
:1009E000FE8180818F5FED81FE81808328960FB626
:1009F000F894DEBF0FBECDBFCF91DF910895DF9396
:100A0000CF9300D000D0CDB7DEB79C838B83EB8132
:100A1000FC81A281B381EB81FC8184819581159653
:100A20009C938E931497EB81FC81A481B581EB811B
:100A3000FC818281938113969C938E931297EB8114
:100A4000FC81808591859A838983E981FA8121815E
:100A500032818B819C812817390741F4EB81FC811D
:100A600084819581E981FA8192838183EB81FC8184
:100A700011861086E981FA8180818150E981FA81AD
:100A800080830F900F900F900F90CF91DF9108957A
:100A9000DF93CF93CDB7DEB728970FB6F894DEBFBC
:100AA0000FBECDBF9C838B837E836D8358874F831E
:100AB000EB81FC8181E180838B819C8101979C8308
:100AC0008B83EB81FC8182E280838B819C81019707
:100AD0009C838B83EB81FC8183E380838B819C816E
:100AE00001979C838B838D819E819A8389838981E1
:100AF000EB81FC8180838B819C8101979C838B831C
:100B000089819A81892F99279A8389838981EB81A9
:100B1000FC8180838B819C8101979C838B83EB81FB
:100B2000FC8110828B819C8101979C838B83EB815C
:100B3000FC8180E880838B819C8101979C838B83DF
:100B4000EB81FC8110828B819C8101979C838B833C
:100B5000EB81FC8182E080838B819C8101979C8367
:100B60008B83EB81FC8183E080838B819C81019767
:100B70009C838B83EB81FC8184E080838B819C81CF
:100B800001979C838B83EB81FC8185E080838B8143
:100B90009C8101979C838B83EB81FC8186E0808321
:100BA0008B819C8101979C838B83EB81FC8187E007
:100BB00080838B819C8101979C838B83EB81FC815B
:100BC00088E080838B819C8101979C838B83EB8160
:100BD000FC8189E080838B819C8101979C838B833E
:100BE000EB81FC8180E180838B819C8101979C83D8
:100BF0008B83EB81FC8181E180838B819C810197D8
:100C00009C838B83EB81FC8182E180838B819C813F
:100C100001979C838B83EB81FC8183E180838B81B3
:100C20009C8101979C838B83EB81FC8184E1808391
:100C30008B819C8101979C838B83EB81FC8185E177
:100C400080838B819C8101979C838B83EB81FC81CA
:100C500086E180838B819C8101979C838B83EB81D0
:100C6000FC8187E180838B819C8101979C838B83AE
:100C7000EB81FC8188E180838B819C8101979C833F
:100C80008B83EB81FC8189E180838B819C8101973F
:100C90009C838B83EB81FC8180E280838B819C81B0
:100CA00001979C838B83EB81FC8181E280838B8124
:100CB0009C8101979C838B83EB81FC8182E2808302
:100CC0008B819C8101979C838B83EB81FC8183E2E8
:100CD00080838B819C8101979C838B838F819885F6
:100CE0009A8389838981EB81FC8180838B819C81BC
:100CF00001979C838B8389819A81892F99279A8375
:100D000089838981EB81FC8180838B819C81019720
:100D10009C838B83EB81FC8186E280838B819C8129
:100D200001979C838B83EB81FC8187E280838B819D
:100D30009C8101979C838B83EB81FC8188E280837B
:100D40008B819C8101979C838B83EB81FC8189E261
:100D500080838B819C8101979C838B83EB81FC81B9
:100D600080E380838B819C8101979C838B83EB81C3
:100D7000FC8181E380838B819C8101979C838B83A1
:100D80008B819C8128960FB6F894DEBF0FBECDBF35
:100D9000CF91DF910895DF93CF93CDB7DEB70E9457
:100DA000BB07A0910D03B0910E03CD91CDBFDD9196
:100DB000DEBFFF91EF91DF91CF91BF91AF919F91F6
:100DC0008F917F916F915F914F913F912F911F91E3
:100DD0000F91FF90EF90DF90CF90BF90AF909F90DA
:100DE0008F907F906F905F904F903F902F901F90CB
:100DF0000F900FBE0F90089581E0CF91DF9108957D
:100E0000DF93CF93CDB7DEB7CF91DF9108950F92E7
:100E10000FB6F8940F921F9211242F923F924F9287
:100E20005F926F927F928F929F92AF92BF92CF927A
:100E3000DF92EF92FF920F931F932F933F934F9365
:100E40005F936F937F938F939F93AF93BF93CF9352
:100E5000DF93EF93FF93A0910D03B0910E030DB6B6
:100E60000D920EB60D920E947710A0910D03B091D5
:100E70000E03CD91CDBFDD91DEBFFF91EF91DF91EC
:100E8000CF91BF91AF919F918F917F916F915F9122
:100E90004F913F912F911F910F91FF90EF90DF9015
:100EA000CF90BF90AF909F908F907F906F905F900A
:100EB0004F903F902F901F900F900FBE0F9008956E
:100EC0000F920FB6F8940F921F9211242F923F9217
:100ED0004F925F926F927F928F929F92AF92BF924A
:100EE000CF92DF92EF92FF920F931F932F933F9336
:100EF0004F935F936F937F938F939F93AF93BF9322
:100F0000CF93DF93EF93FF93A0910D03B0910E0366
:100F10000DB60D920EB60D920E94A20F0E94771090
:100F2000A0910D03B0910E03CD91CDBFDD91DEBF39
:100F3000FF91EF91DF91CF91BF91AF919F918F91F1
:100F40007F916F915F914F913F912F911F910F91E1
:100F5000FF90EF90DF90CF90BF90AF909F908F90D9
:100F60007F906F905F904F903F902F901F900F90C9
:100F70000FBE0F900895DF93CF9300D000D000D024
:100F8000CDB7DEB780E49FE1A0E0B0E08B839C8327
:100F9000AD83BE838B819C81AD81BE81689415F841
:100FA000B695A795979587951694D1F78B839C83D3
:100FB000AD83BE838B819C81AD81BE810197A109E8
:100FC000B1098B839C83AD83BE838B8189838B81A5
:100FD0009C81AD81BE81892F9A2FAB2FBB278B833C
:100FE0009C83AD83BE838B818A83EBE4F0E08A81AE
:100FF0008083EAE4F0E0898180838BE08983EEE4FA
:10100000F0E089818083E9E5F0E08081898389814E
:1010100080618983E9E5F0E08981808326960FB6B7
:10102000F894DEBF0FBECDBFCF91DF9108950E942F
:1010300060071895DF93CF93CDB7DEB728970FB62B
:10104000F894DEBF0FBECDBF8F8368871A821982E6
:101050008F81882309F48CC08FE190E00E94A10366
:101060009E838D838D819E81009709F481C08F813D
:10107000282F30E08885882F90E0AC01249FC001A4
:10108000259F900D349F900D112401969C838B8396
:101090008B819C810E94A103ED81FE8191838083DD
:1010A000ED81FE8180819181009709F45DC0ED8121
:1010B000FE81408151818F81282F30E08885882FE3
:1010C00090E0BC01269FC001279F900D369F900D98
:1010D0001124840F951FED81FE8193838283ED811E
:1010E000FE81128EED81FE8180819181ED81FE81F4
:1010F00095838483ED81FE81408151818F81882F8A
:1011000090E09C01215030408885882F90E0BC0100
:10111000269FC001279F900D369F900D1124840FAC
:10112000951FED81FE8197838683ED81FE818F81FE
:10113000838FED81FE818885848FED81FE818FEF25
:10114000858FED81FE818FEF868F8D819E81089640
:101150000E940D048D819E8141960E940D048D8117
:101160009E819A83898304C08D819E810E94E703BA
:1011700089819A8128960FB6F894DEBF0FBECDBF45
:10118000CF91DF910895DF93CF93CDB7DEB72C9742
:101190000FB6F894DEBF0FBECDBF9E838D837887D8
:1011A0006F835A8749872B8719820FB6F8940F925D
:1011B000ED81FE81928DED81FE81838D9817D8F4AB
:1011C0008D819E812F813885B9014B850E94FE0A51
:1011D000ED81FE818189882349F08D819E81419630
:1011E0000E941311813011F40E9407070F900FBE67
:1011F00081E08C875CC089859A85009721F40F90E7
:101200000FBE1C8654C08981882331F4CE0102961A
:101210000E947B1181E089830F900FBE0E94D70E40
:101220000FB6F8940F92ED81FE81858D8F3F19F4F2
:10123000ED81FE81158EED81FE81868D8F3F19F443
:10124000ED81FE81168E0F900FBECE0102969E019B
:10125000275F3F4FB9010E949411882309F58D81C2
:101260009E810E94620C8823A1F08D819E81089648
:1012700029853A85B9010E94DD108D819E810E94E9
:10128000DB0B0E94E30E882309F08FCF0E94070733
:101290008CCF8D819E810E94DB0B0E94E30E85CF57
:1012A0008D819E810E94DB0B0E94E30E1C868C8543
:1012B0002C960FB6F894DEBF0FBECDBFCF91DF9155
:1012C0000895DF93CF93CDB7DEB729970FB6F89483
:1012D000DEBF0FBECDBF9C838B837E836D8358871B
:1012E0004F8329871982EB81FC81928DEB81FC81F0
:1012F000838D981740F58B819C812D813E81B901AA
:1013000049850E94FE0AEB81FC81868D8F3F89F41E
:10131000EB81FC818189882399F08B819C814196A6
:101320000E941311882361F0EF81F88581E08083AA
:1013300007C0EB81FC81868D8F5FEB81FC81868FFE
:1013400081E08A8301C01A828A8129960FB6F894B7
:10135000DEBF0FBECDBFCF91DF910895DF93CF9356
:10136000CDB7DEB72E970FB6F894DEBF0FBECDBF58
:1013700098878F837A8769875C874B872D871B8245
:101380000FB6F8940F92EF81F885828D882309F4C7
:101390003FC0EF81F885868197819A8389838F8109
:1013A000988529853A85B9010E94930B8D858823FC
:1013B000B1F4EF81F885828D8150EF81F885828FBD
:1013C000EF81F88580858823F1F08F8198850896D4
:1013D0000E9413118130B9F40E94070714C0EF81F5
:1013E000F88589819A8197838683EF81F885818941
:1013F000882349F08F81988541960E941311882394
:1014000011F00E9407070F900FBE81E08E875CC02D
:101410008B859C85009721F40F900FBE1E8654C0CB
:101420008B81882331F4CE0104960E947B1181E0E8
:101430008B830F900FBE0E94D70E0FB6F8940F92B9
:10144000EF81F885858D8F3F19F4EF81F885158E32
:10145000EF81F885868D8F3F19F4EF81F885168E20
:101460000F900FBECE0104969E01255F3F4FB9013C
:101470000E949411882309F58F8198850E942F0C72
:101480008823A1F08F81988541962B853C85B901F1
:101490000E94DD108F8198850E94DB0B0E94E30E75
:1014A000882309F06DCF0E9407076ACF8F81988546
:1014B0000E94DB0B0E94E30E63CF8F8198850E9410
:1014C000DB0B0E94E30E1E868E852E960FB6F894D7
:1014D000DEBF0FBECDBFCF91DF910895DF93CF93D5
:1014E000CDB7DEB728970FB6F894DEBF0FBECDBFDD
:1014F0009C838B837E836D8358874F831982EB8116
:10150000FC81828D882371F18B819C812D813E81AC
:10151000B9010E94930BEB81FC81828D8150EB819C
:10152000FC81828FEB81FC81858D8F3F89F4EB817B
:10153000FC818085882399F08B819C8108960E948C
:101540001311882361F0EF81F88581E0808307C063
:10155000EB81FC81858D8F5FEB81FC81858F81E044
:101560008A8301C01A828A8128960FB6F894DEBF5A
:101570000FBECDBFCF91DF910895DF93CF9300D001
:101580000F92CDB7DEB79B838A830FB6F8940F9284
:10159000EA81FB81828D89830F900FBE89810F9034
:1015A0000F900F90CF91DF910895DF93CF9300D0EC
:1015B0000F92CDB7DEB79B838A83EA81FB81828D50
:1015C000898389810F900F900F90CF91DF910895BB
:1015D000DF93CF9300D0CDB7DEB79A838983E981BB
:1015E000FA81808191810E94E70389819A810E941A
:1015F000E7030F900F90CF91DF910895DF93CF9382
:1016000000D000D00F92CDB7DEB79A8389837C8358
:101610006B834D83E981FA81848D882309F474C03A
:101620008D81882399F5E981FA8164817581E98149
:10163000FA81848D482F50E02B813C81CB01B90188
:101640000E948613E981FA8124813581E981FA813A
:10165000848D882F90E0820F931FE981FA81958312
:101660008483E981FA8124813581E981FA8182814B
:1016700093812817390708F447C0E981FA818081EE
:101680009181E981FA81958384833EC0E981FA8161
:1016900066817781E981FA81848D482F50E02B8122
:1016A0003C81CB01B9010E948613E981FA81268130
:1016B0003781E981FA81848D882F90E0909581951A
:1016C0009F4F820F931FE981FA8197838683E98177
:1016D000FA8126813781E981FA81808191812817F9
:1016E000390790F4E981FA8122813381E981FA8115
:1016F000848D882F90E0909581959F4F820F931F46
:10170000E981FA8197838683E981FA81828D8F5FEF
:10171000E981FA81828F0F900F900F900F900F90B8
:10172000CF91DF910895DF93CF9300D000D0CDB754
:10173000DEB79A8389837C836B83E981FA81808118
:101740009181009789F1E981FA8126813781E981C8
:10175000FA81848D882F90E0820F931FE981FA81AE
:1017600097838683E981FA8126813781E981FA812D
:10177000828193812817390740F0E981FA818081BD
:101780009181E981FA8197838683E981FA81468193
:101790005781E981FA81848D282F30E08B819C81EB
:1017A000BA01A9010E9486130F900F900F900F901D
:1017B000CF91DF910895DF93CF9300D0CDB7DEB7FF
:1017C0009A8389830FB6F8940F9215C0E981FA8144
:1017D00081898823A9F089819A8141960E941311F9
:1017E000882311F00E94F111E981FA81868D8150E0
:1017F000E981FA81868FE981FA81868D181634F3A2
:10180000E981FA818FEF868F0F900FBE0FB6F894A3
:101810000F9215C0E981FA8180858823A9F089811A
:101820009A8108960E941311882311F00E94F111E9
:10183000E981FA81858D8150E981FA81858FE9817D
:10184000FA81858D181634F3E981FA818FEF858F3F
:101850000F900FBE0F900F90CF91DF910895DF93FF
:10186000CF9300D00F92CDB7DEB79B838A830FB69C
:10187000F8940F92EA81FB81828D1982882311F4FA
:1018800081E089830F900FBE89810F900F900F9098
:10189000CF91DF910895DF93CF9300D00F92CDB712
:1018A000DEB79B838A83EA81FB81828D198288233C
:1018B00011F481E0898389810F900F900F90CF916F
:1018C000DF910895DF93CF9300D00F92CDB7DEB7AD
:1018D0009B838A830FB6F8940F92EA81FB81928DE5
:1018E000EA81FB81838D1982981711F481E0898345
:1018F0000F900FBE89810F900F900F90CF91DF91C5
:101900000895DF93CF9300D00F92CDB7DEB79B83BE
:101910008A83EA81FB81928DEA81FB81838D198222
:10192000981711F481E0898389810F900F900F90AF
:10193000CF91DF910895AF92BF92CF92DF92EF9255
:10194000FF920F931F93DF93CF93CDB7DEB76497CA
:101950000FB6F894DEBF0FBECDBF9F838E8379870D
:1019600068875B874A873D872C870E87F88AEF86D2
:10197000DA8AC98ABC8AAB8A8A859B8529893A8991
:10198000B9010E9420139C838B838B819C810097DB
:1019900009F499C0EB81FC812789308D8A859B856C
:1019A0000197820F931F9A8389838B819C8128855D
:1019B0003985EB89FC89AA85BB85B9014E859F01D4
:1019C0008D010E94051289819A812E813F814C856B
:1019D0005D85B9010E944805EB81FC81918380837C
:1019E0008F859889009731F0EF85F8898B819C81EC
:1019F000918380830FB6F8940F92809110038F5FCC
:101A00008093100380910D0390910E03009769F469
:101A10008B819C8190930E0380930D038091100322
:101A20008130A9F40E945C1212C0809115038823B2
:101A300071F4E0910D03F0910E0396898E8589175C
:101A400030F08B819C8190930E0380930D03EB818A
:101A5000FC81968980911303891728F4EB81FC811E
:101A600086898093130380911A038F5F80931A03F2
:101A7000EB81FC81968980911403891728F4EB810E
:101A8000FC81868980931403EB81FC818689282F51
:101A900030E0C901880F991F880F991F880F991F7F
:101AA000820F931FAC01455E5C4F8B819C819C0132
:101AB0002E5F3F4FCA01B9010E94470481E08D8328
:101AC0000F900FBE02C08FEF8D838D81813071F436
:101AD00080911503882351F0E0910D03F0910E03DE
:101AE00096898E85981710F40E9407078D81649659
:101AF0000FB6F894DEBF0FBECDBFCF91DF911F911F
:101B00000F91FF90EF90DF90CF90BF90AF9008952E
:101B1000DF93CF9300D000D000D0CDB7DEB79C8349
:101B20008B830FB6F8940F9220910D0330910E0322
:101B30008B819C818217930711F41C821B828B81FD
:101B40009C81009739F480910D0390910E039E8340
:101B50008D8304C08B819C819E838D838D819E812A
:101B60009A83898389819A8102960E94FF04E98180
:101B7000FA8184899589009729F089819A810C9648
:101B80000E94FF0489819A819C012E5F3F4F87E666
:101B900093E0B9010E94470480910F038F5F809307
:101BA0000F0380911A038F5F80931A030F900FBE6B
:101BB00080911503882331F08B819C81009711F46B
:101BC0000E94070726960FB6F894DEBF0FBECDBF62
:101BD000CF91DF910895DF93CF93CDB7DEB72897EC
:101BE0000FB6F894DEBF0FBECDBF9E838D8378877E
:101BF0006F8319820E94D70EED81FE812081318191
:101C00008F819885820F931F9C838B83ED81FE814A
:101C100020813181809111039091120382179307E3
:101C2000A8F4ED81FE81208131818B819C81821716
:101C3000930700F520911103309112038B819C8151
:101C400028173907B8F481E0898314C0ED81FE813B
:101C5000208131818B819C818217930748F02091EC
:101C60001103309112038B819C812817390710F4DE
:101C700081E08983ED81FE818B819C8191838083CA
:101C80008981882359F080910D0390910E0302966B
:101C90000E94FF048B819C810E94D7120E94E30E58
:101CA0008A838A81882311F40E94070728960FB639
:101CB000F894DEBF0FBECDBFCF91DF910895DF93C3
:101CC000CF9300D000D00F92CDB7DEB79D838C8329
:101CD00019828C819D810097D1F00E94D70E2091AE
:101CE0001103309112038C819D81820F931F9B837E
:101CF0008A8380910D0390910E0302960E94FF0447
:101D00008A819B810E94D7120E94E30E8983898178
:101D1000882311F40E9407070F900F900F900F90E7
:101D20000F90CF91DF910895AF92BF92CF92DF9243
:101D3000EF92FF920F93DF93CF930F92CDB7DEB761
:101D40002CE630E08BEF91E1B90145E550E020E071
:101D500030E000E0EE24FF24CC24DD24AA24BB24C0
:101D60000E949B0C89838981813051F4F89481E031
:101D70008093150310921203109211030E94CB0658
:101D80000F90CF91DF910F91FF90EF90DF90CF9068
:101D9000BF90AF900895DF93CF93CDB7DEB7F8949F
:101DA000109215030E940007CF91DF910895DF93F1
:101DB000CF93CDB7DEB7809116038F5F8093160364
:101DC000CF91DF910895DF93CF9300D000D0CDB7AE
:101DD000DEB71A820FB6F8940F92809116038150E5
:101DE0008093160380911603882309F06CC08091BC
:101DF0001003882309F467C0198241C0E09163038E
:101E0000F0916403868197819C838B838B819C8175
:101E10000C960E94FF048B819C8102960E94FF0415
:101E2000EB81FC81968980911403891728F4EB815A
:101E3000FC81868980931403EB81FC818689282F9D
:101E400030E0C901880F991F880F991F880F991FCB
:101E5000820F931F855E9C4F2B813C812E5F3F4FED
:101E6000B9010E944704EB81FC819689E0910D0342
:101E7000F0910E038689981710F081E08983809194
:101E80005E03882309F0BACF80911703882371F08D
:101E900007C00E94A20F80911703815080931703FF
:101EA000809117038823A9F781E089838981813094
:101EB00021F080911803813031F481E08A831092FF
:101EC00018030E9407070F900FBE8A810F900F9092
:101ED0000F900F90CF91DF910895DF93CF9300D0B3
:101EE000CDB7DEB70FB6F8940F92809111039091A1
:101EF00012039A8389830F900FBE89819A810F9074
:101F00000F90CF91DF910895DF93CF9300D00F9280
:101F1000CDB7DEB7198280911103909112039B8394
:101F20008A838A819B810F900F900F90CF91DF91D0
:101F30000895DF93CF93CDB7DEB780911003CF9193
:101F4000DF910895DF93CF9300D000D000D0CDB7BC
:101F5000DEB780911603882309F0BBC0809111037E
:101F60009091120301969093120380931103809134
:101F70001103909112030097D1F580915A0390912B
:101F80005B039C838B8380915C0390915D039093B2
:101F90005B0380935A038B819C8190935D038093B4
:101FA0005C03809119038F5F80931903E0915A03BA
:101FB000F0915B038081882339F48FEF9FEF90933A
:101FC00072008093710013C0E0915A03F0915B039B
:101FD0000580F681E02D868197819E838D83ED813A
:101FE000FE81828193819093720080937100209191
:101FF00011033091120380917100909172002817A3
:10200000390708F46BC0E0915A03F0915B038081BB
:10201000882339F48FEF9FEF9093720080937100C3
:102020005DC0E0915A03F0915B030580F681E02DDD
:10203000868197819E838D83ED81FE81828193814C
:102040009A838983209111033091120389819A81A7
:102050002817390738F489819A8190937200809308
:1020600071003CC08D819E8102960E94FF04ED812B
:10207000FE8184899589009729F08D819E810C9637
:102080000E94FF04ED81FE819689809114038917D7
:1020900028F4ED81FE81868980931403ED81FE8111
:1020A0008689282F30E0C901880F991F880F991F52
:1020B000880F991F820F931FAC01455E5C4F8D8185
:1020C0009E819C012E5F3F4FCA01B9010E944704C7
:1020D0009ACF809117038F5F8093170326960FB6D0
:1020E000F894DEBF0FBECDBFCF91DF910895DF938F
:1020F000CF9300D0CDB7DEB780911603882349F087
:1021000081E08093180354C0809114038150809320
:10211000140380911403282F30E0C901880F991F00
:10212000880F991F880F991F820F931FFC01E55E8E
:10213000FC4F8081882341F380911403282F30E0E5
:10214000C901880F991F880F991F880F991F820F47
:10215000931F855E9C4F9A838983E981FA81018070
:10216000F281E02D82819381E981FA8192838183DA
:10217000E981FA812181328189819A810396281728
:10218000390759F4E981FA810180F281E02D8281D9
:102190009381E981FA8192838183E981FA810180C7
:1021A000F281E02D8681978190930E0380930D0339
:1021B0000F900F90CF91DF910895DF93CF9300D0D0
:1021C00000D000D0CDB7DEB79C838B837E836D8338
:1021D0004B815C8180910D0390910E039C01245FE3
:1021E0003F4FCA01B9010E94930480910D03909161
:1021F0000E0302960E94FF042091110330911203F6
:102200008D819E81820F931F9A83898389819A8110
:102210000E94D71226960FB6F894DEBF0FBECDBF30
:10222000CF91DF910895DF93CF9300D000D00F922C
:10223000CDB7DEB79D838C83EC81FD810580F6816F
:10224000E02D868197819B838A838A819B810C966E
:102250000E94FF0480911603882361F58A819B8187
:1022600002960E94FF04EA81FB8196898091140303
:10227000891728F4EA81FB81868980931403EA8117
:10228000FB818689282F30E0C901880F991F880FAC
:10229000991F880F991F820F931FAC01455E5C4FF9
:1022A0008A819B819C012E5F3F4FCA01B9010E9428
:1022B00047040AC08A819B819C01245F3F4F8EE5C1
:1022C00093E0B9010E944704EA81FB819689E0917D
:1022D0000D03F0910E038689981718F081E0898329
:1022E00001C0198289810F900F900F900F900F906D
:1022F000CF91DF910895DF93CF9300D0CDB7DEB7B4
:102300009A83898380911903E981FA81808380917E
:10231000110390911203E981FA81928381830F90D6
:102320000F90CF91DF910895DF93CF9300D000D02D
:102330000F92CDB7DEB79B838A837D836C830FB604
:10234000F8940F92EA81FB8190818091190398178C
:1023500071F0EA81FB81218132818091110390919A
:1023600012038217930718F081E089832FC0209110
:10237000110330911203EA81FB8181819281281B34
:10238000390BEC81FD818081918128173907E0F4B8
:10239000EC81FD8140815181EA81FB812181328183
:1023A0008091110390911203B901681B790BCB0145
:1023B000840F951FEC81FD81918380838A819B81AD
:1023C0000E947B11198202C081E089830F900FBEA9
:1023D00089810F900F900F900F900F90CF91DF9108
:1023E0000895DF93CF93CDB7DEB781E080931803D4
:1023F000CF91DF910895DF93CF9300D0CDB7DEB7B3
:102400009A8389830E949912FDCF0F931F93DF93C4
:10241000CF93CDB7DEB729970FB6F894DEBF0FBEC6
:10242000CDBF9A8389837C836B834D833F832E83C7
:102430001987088789819A8149962B813C81B90146
:1024400048E050E00E949613E981FA8110A28D8144
:10245000853010F084E08D83E981FA818D81868B4F
:1024600089819A8102960E94370489819A810C960B
:102470000E943704E981FA8189819A819187808756
:102480008D81282F30E085E090E0821B930BE9815D
:10249000FA8195878487E981FA8189819A81938B72
:1024A000828B29960FB6F894DEBF0FBECDBFCF91B9
:1024B000DF911F910F910895DF93CF930F92CDB7C6
:1024C000DEB7198213C08981282F30E0C901880F37
:1024D000991F880F991F880F991F820F931F855E80
:1024E0009C4F0E940D0489818F5F8983898185308B
:1024F00050F388E493E00E940D0481E593E00E948C
:102500000D048EE593E00E940D0487E693E00E949F
:102510000D0488E493E090935B0380935A0381E574
:1025200093E090935D0380935C030F90CF91DF91D4
:102530000895DF93CF9300D00F92CDB7DEB780918F
:102540000F03882371F10E94D70E809167031B82CD
:10255000882311F481E08B830E94E30E8B81882312
:1025600001F50FB6F8940F92E0916C03F0916D03B2
:10257000868197819A83898389819A8102960E94B4
:10258000FF048091100381508093100380910F030A
:10259000815080930F030F900FBE89819A810E9412
:1025A00070130F900F900F90CF91DF910895DF93EC
:1025B000CF9300D0CDB7DEB79A838983E0910D0326
:1025C000F0910E0389819A81938382832091110374
:1025D0003091120389819A818217930770F4809158
:1025E0005C0390915D0320910D0330910E032E5FEB
:1025F0003F4FB9010E9493041EC040915A0350916D
:102600005B0380910D0390910E039C012E5F3F4F61
:10261000CA01B9010E9493042091710030917200A7
:1026200089819A818217930730F489819A819093E6
:102630007200809371000F900F90CF91DF910895F9
:10264000DF93CF93CDB7DEB728970FB6F894DEBFF0
:102650000FBECDBF9C838B837E836D8381E290E030
:102660000E94A1039A83898389819A81009769F1E5
:102670008D819E81009739F48B819C810E94A103FA
:1026800098878F8304C08D819E8198878F83E9818D
:10269000FA818F819885908F878BE981FA8187896C
:1026A000908D009739F489819A810E94E7031A82FC
:1026B00019820BC0E981FA818789908D2B813C8139
:1026C00065EA70E0A9010E948F1389819A8128969A
:1026D0000FB6F894DEBF0FBECDBFCF91DF91089546
:1026E000DF93CF9300D0CDB7DEB79A838983E9819A
:1026F000FA818789908D0E94E70389819A810E94DF
:10270000E7030F900F90CF91DF910895FB01DC015B
:1027100002C001900D9241505040D8F70895DC015D
:1027200001C06D9341505040E0F70895FB01DC017A
:102730004150504048F001900D920020C9F701C06F
:0E2740001D9241505040E0F70895F894FFCFED
:10274E005461736B31005461736B320049444C45D4
:04275E0000FFFF0079
:00000001FF
