:100000000C942A000C9447000C9447000C94470071
:100010000C9447000C9447000C9447000C94510931
:100020000C9447000C9447000C9447000C94470034
:100030000C9447000C9447000C9447000C94470024
:100040000C9447000C9447000C9447000C94470014
:100050000C94470011241FBECFE5D8E0DEBFCDBF12
:1000600010E0A0E6B0E0E2ECF9E202C005900D92EB
:10007000A838B107D9F713E0A8E8B0E001C01D9295
:10008000A338B107E1F70E9449000C94DF140C94E7
:100090000000AF92BF92CF92DF92EF92FF920F9348
:1000A000DF93CF9300D000D000D0CDB7DEB71A8257
:1000B000198220E630E080EF90E0B90145E550E09C
:1000C00020E030E001E0FE0131967F01CC24DD2408
:1000D000AA24BB240E94D50D1C821B822CE630E092
:1000E00088E491E0FE013396B90145E550E020E057
:1000F00030E002E07F01CC24DD24AA24BB240E944E
:10010000D50D1E821D822AE730E080EA91E0FE01D3
:100110003596B90145E550E020E030E002E07F018E
:10012000CC24DD24AA24BB240E94D50D0E94DE002D
:1001300081E060E00E9454099093890080938800D8
:100140008091880090918900009759F080918800F3
:100150009091890060E070E040E050E020E00E9473
:10016000FD0981E060E00E94540990938B00809328
:100170008A0080918A0090918B00009759F08091BD
:100180008A0090918B0060E070E040E050E020E059
:100190000E94FD090E94CE0F80E090E026960FB6E7
:1001A000F894DEBF0FBECDBFCF91DF910F91FF90CE
:1001B000EF90DF90CF90BF90AF900895DF93CF93F3
:1001C000CDB7DEB7E7E3F0E08FEF8083E4E3F0E064
:1001D0001082E5E3F0E08FEF8083CF91DF91089507
:1001E000DF93CF9300D000D000D0CDB7DEB79E8391
:1001F0008D8384E690E09A8389830E94A7109C8374
:100200008B83E3E3F0E08081882F90E08170907031
:100210000097B1F5809188009091890060E070E0CE
:1002200044E650E020E00E94E80A813049F588EE7B
:1002300093E00E94990F80918A0090918B0060E07A
:1002400070E044E650E020E00E94E80A882399F339
:100250001092840080918A0090918B0060E070E0A1
:1002600040E050E020E00E94FD09809188009091DC
:10027000890060E070E040E050E020E00E94FD096D
:10028000CE01039629813A81B9010E94250FB9CF89
:10029000DF93CF9300D000D000D0CDB7DEB79E83E0
:1002A0008D8384E690E09A8389830E94A7109C83C3
:1002B0008B83E3E3F0E08081882F90E08270907080
:1002C0000097B9F780918A0090918B0060E070E010
:1002D00044E650E020E00E94E80A813049F588EECB
:1002E00093E00E94990F809188009091890060E0CE
:1002F00070E044E650E020E00E94E80A882399F389
:1003000010928500809188009091890060E070E0F3
:1003100040E050E020E00E94FD0980918A00909129
:100320008B0060E070E040E050E020E00E94FD09BA
:10033000CE01039629813A81B9010E94250FB9CFD8
:10034000DF93CF9300D000D000D0CDB7DEB79E832F
:100350008D8384E690E09A8389830E94A7109C8312
:100360008B83809188009091890060E070E044E682
:1003700050E020E00E94E80A813099F788EE93E08F
:100380000E94990F80918A0090918B0060E070E04C
:1003900044E650E020E00E94E80A882399F3809127
:1003A0008400882391F480918500882371F4A8E368
:1003B000B0E0E8E3F0E0908181E089278C9381E070
:1003C0008093840081E08093850080918A009091E1
:1003D0008B0060E070E040E050E020E00E94FD090A
:1003E000809188009091890060E070E040E050E0EA
:1003F00020E00E94FD09CE01039629813A81B901CE
:100400000E94250FAECFDF93CF93CDB7DEB72797EE
:100410000FB6F894DEBF0FBECDBF9D838C836E8375
:100420004F838AE190E00E94DB049A83898389816B
:100430009A81009709F46FC080918C0090918D0093
:10044000009741F489819A8190938D0080938C006C
:100450000E946A048E81823010F081E08E83E981EF
:10046000FA81118E108EE981FA818E81868BE98165
:10047000FA818F81878BE981FA818C819D819183BB
:10048000808389819A8102960E94710589819A816F
:100490000C960E947105E981FA8189819A81918780
:1004A0008087E981FA8189819A81938B828B8E8101
:1004B000282F30E085E090E0821B930BE981FA81E0
:1004C00095878487E981FA81968980918E008917C2
:1004D00028F4E981FA81868980938E00E981FA8186
:1004E0008689282F30E0C901880F991F880F991F2E
:1004F000880F991F820F931FAC014B565F4F898164
:100500009A819C012E5F3F4FCA01B9010E9481056B
:1005100081E08B8302C08FEF8B838B8127960FB690
:10052000F894DEBF0FBECDBFCF91DF910895DF936A
:10053000CF9300D000D000D0CDB7DEB79C838B83A3
:100540007E836D8320918F00309190008B819C8100
:10055000820F931F9A83898380918C0090918D00E4
:1005600002960E943906E0918C00F0918D008981FD
:100570009A819383828320918F00309190008981AA
:100580009A818217930770F48091BB009091BC0010
:1005900020918C0030918D002E5F3F4FB9010E9459
:1005A000CD050DC08091B9009091BA0020918C00CA
:1005B00030918D002E5F3F4FB9010E94CD058D8196
:1005C0009E81009761F080918C0090918D009C013C
:1005D000245F3F4F8D819E81B9010E94CD052696F3
:1005E0000FB6F894DEBF0FBECDBFCF91DF91089557
:1005F000DF93CF9300D0CDB7DEB73AC0F894E09147
:10060000C200F091C300868197819A838983898192
:100610009A810C960E943906789489819A81029673
:100620000E943906E981FA81968980918E008917A6
:1006300028F4E981FA81868980938E00E981FA8124
:100640008689282F30E0C901880F991F880F991FCC
:10065000880F991F820F931FAC014B565F4F898102
:100660009A819C012E5F3F4FCA01B9010E9481050A
:100670008091BD00882309F0C1CF0F900F90CF91DA
:10068000DF910895DF93CF9300D000D0CDB7DEB7D0
:100690000E94A7102091910030919200821B930B31
:1006A000909394008093930085C080918F009091E7
:1006B000900001969093900080938F00809193001A
:1006C000909194000197909394008093930080916F
:1006D0008F0090919000009709F064C08091B9005C
:1006E0009091BA009A8389838091BB009091BC005D
:1006F0009093BA008093B90089819A819093BC004D
:100700008093BB004FC0E091B900F091BA00058022
:10071000F681E02D868197819C838B83EB81FC8120
:100720002281338180918F009091900082179307EE
:1007300008F440C0F8948B819C8102960E9439068F
:10074000EB81FC8184899589009729F08B819C81BC
:100750000C960E9439067894EB81FC8196898091F1
:100760008E00891728F4EB81FC81868980938E00A6
:10077000EB81FC818689282F30E0C901880F991F01
:10078000880F991F880F991F820F931FAC014B563A
:100790005F4F8B819C819C012E5F3F4FCA01B90145
:1007A0000E948105E091B900F091BA008081882310
:1007B00009F0A9CF8091930090919400009709F0DF
:1007C00074CF80918F0090919000909392008093CD
:1007D00091000F900F900F900F90CF91DF9108959F
:1007E000DF93CF9300D0CDB7DEB70E94F8020E940E
:1007F00042030AC080918E00882309F466C080916C
:100800008E00815080938E0080918E00282F30E0E2
:10081000C901880F991F880F991F880F991F820F90
:10082000931FFC01EB56FF4F8081882319F38091C1
:100830008E00282F30E0C901880F991F880F991F5B
:10084000880F991F820F931F8B569F4F9A8389831E
:10085000E981FA810180F281E02D82819381E98131
:10086000FA8192838183E981FA81218132818981B0
:100870009A8103962817390759F4E981FA81018092
:10088000F281E02D82819381E981FA8192838183D3
:10089000E981FA810180F281E02D86819781909330
:1008A0008D0080938C00E0918C00F0918D00408150
:1008B000518180918C0090918D00E0918C00F0919D
:1008C0008D002789622FFA0109950F900F90CF9123
:1008D000DF910895DF93CF930F92CDB7DEB71982E2
:1008E00013C08981282F30E0C901880F991F880F14
:1008F000991F880F991F820F931F8B569F4F0E943D
:10090000470589818F5F89838981823050F387EA27
:1009100090E00E94470580EB90E00E9447058DEB38
:1009200090E00E94470587EA90E09093BA00809398
:10093000B90080EB90E09093BC008093BB000F90D7
:10094000CF91DF910895DF93CF9300D000D00F9225
:10095000CDB7DEB79D838C83EC81FD810580F68168
:10096000E02D868197819B838A838A819B810C9667
:100970000E9439068A819B819C01245F3F4F8DEB49
:1009800090E0B9010E948105EA81FB819689E0919E
:100990008C00F0918D008689981718F081E089838A
:1009A00001C0198289810F900F900F900F900F90C6
:1009B000CF91DF910895DF93CF9300D000D0CDB7D2
:1009C000DEB79C838B831A8219820E94111080915A
:1009D000C6009091C7002B813C81820F931F22E0BB
:1009E0008835920718F52091C6003091C7008B8199
:1009F0009C81280F391F8091C6009091C7008217F3
:100A00009307A0F48091C6009091C70088539F4F30
:100A10009A8389832091C6003091C7008B819C8185
:100A2000820F931F9093C7008093C6000E941D10F1
:100A300089819A810F900F900F900F90CF91DF9145
:100A40000895DF93CF9300D0CDB7DEB79A83898323
:100A50000F900F90CF91DF910895DF93CF93CDB793
:100A6000DEB71092C7001092C600CF91DF910895B3
:100A7000DF93CF93CDB7DEB72091C6003091C7008A
:100A800088E592E0821B930BCF91DF910895DF936D
:100A9000CF9300D0CDB7DEB79A83898389819A81BD
:100AA0000396E981FA8192838183E981FA818FEF4C
:100AB0009FEF9483838389819A810396E981FA81E8
:100AC0009683858389819A810396E981FA8190874B
:100AD0008783E981FA8110820F900F90CF91DF9187
:100AE0000895DF93CF9300D0CDB7DEB79A83898383
:100AF000E981FA81118610860F900F90CF91DF91D6
:100B00000895DF93CF9300D000D000D0CDB7DEB7EB
:100B10009C838B837E836D83EB81FC8181819281B9
:100B20009A838983E981FA8182819381ED81FE81B3
:100B300093838283EB81FC8181819281ED81FE81AF
:100B400095838483E981FA810280F381E02D8D8190
:100B50009E81958384838D819E81E981FA8193832F
:100B600082838D819E81EB81FC8192838183ED81E3
:100B7000FE818B819C8191878087EB81FC818081C4
:100B80008F5FEB81FC81808326960FB6F894DEBFE1
:100B90000FBECDBFCF91DF910895DF93CF93CDB737
:100BA000DEB728970FB6F894DEBF0FBECDBF9E8389
:100BB0008D8378876F83EF81F885808191819A8317
:100BC000898389819A812FEF8F3F920739F4ED81D4
:100BD000FE81878190859C838B8318C08D819E8147
:100BE00003969C838B8306C0EB81FC818281938179
:100BF0009C838B83EB81FC810280F381E02D20813B
:100C0000318189819A818217930770F7EB81FC818A
:100C100082819381EF81F88593838283EF81F885C8
:100C20000280F381E02D8F81988595838483EF8105
:100C3000F8858B819C81958384838F819885EB8156
:100C4000FC8193838283EF81F8858D819E819187DA
:100C50008087ED81FE8180818F5FED81FE818083C1
:100C600028960FB6F894DEBF0FBECDBFCF91DF91AF
:100C70000895DF93CF9300D000D0CDB7DEB79C832B
:100C80008B83EB81FC81A281B381EB81FC81848128
:100C9000958115969C938E931497EB81FC81A4818A
:100CA000B581EB81FC818281938113969C938E9315
:100CB0001297EB81FC81808591859A838983E981F4
:100CC000FA81218132818B819C812817390741F477
:100CD000EB81FC8184819581E981FA819283818312
:100CE000EB81FC8111861086E981FA818081815037
:100CF000E981FA8180830F900F900F900F90CF9130
:100D0000DF910895DF93CF93CDB7DEB728970FB665
:100D1000F894DEBF0FBECDBF9C838B837E836D8333
:100D200058874F83EB81FC8181E180838B819C819B
:100D300001979C838B83EB81FC8182E280838B8192
:100D40009C8101979C838B83EB81FC8183E380836F
:100D50008B819C8101979C838B838D819E819A835B
:100D600089838981EB81FC8180838B819C810197C0
:100D70009C838B8389819A81892F99279A83898380
:100D80008981EB81FC8180838B819C8101979C838D
:100D90008B83EB81FC8110828B819C8101979C83EA
:100DA0008B83EB81FC8180E880838B819C81019720
:100DB0009C838B83EB81FC8110828B819C810197CA
:100DC0009C838B83EB81FC8182E080838B819C817F
:100DD00001979C838B83EB81FC8183E080838B81F3
:100DE0009C8101979C838B83EB81FC8184E08083D1
:100DF0008B819C8101979C838B83EB81FC8185E0B7
:100E000080838B819C8101979C838B83EB81FC8108
:100E100086E080838B819C8101979C838B83EB810F
:100E2000FC8187E080838B819C8101979C838B83ED
:100E3000EB81FC8188E080838B819C8101979C837E
:100E40008B83EB81FC8189E080838B819C8101977E
:100E50009C838B83EB81FC8180E180838B819C81EF
:100E600001979C838B83EB81FC8181E180838B8163
:100E70009C8101979C838B83EB81FC8182E1808341
:100E80008B819C8101979C838B83EB81FC8183E127
:100E900080838B819C8101979C838B83EB81FC8178
:100EA00084E180838B819C8101979C838B83EB8180
:100EB000FC8185E180838B819C8101979C838B835E
:100EC000EB81FC8186E180838B819C8101979C83EF
:100ED0008B83EB81FC8187E180838B819C810197EF
:100EE0009C838B83EB81FC8188E180838B819C8157
:100EF00001979C838B83EB81FC8189E180838B81CB
:100F00009C8101979C838B83EB81FC8180E28083B1
:100F10008B819C8101979C838B83EB81FC8181E297
:100F200080838B819C8101979C838B83EB81FC81E7
:100F300082E280838B819C8101979C838B83EB81F0
:100F4000FC8183E280838B819C8101979C838B83CE
:100F50008F8198859A8389838981EB81FC81808345
:100F60008B819C8101979C838B8389819A81892FB6
:100F700099279A8389838981EB81FC8180838B8186
:100F80009C8101979C838B83EB81FC8186E280832B
:100F90008B819C8101979C838B83EB81FC8187E211
:100FA00080838B819C8101979C838B83EB81FC8167
:100FB00088E280838B819C8101979C838B83EB816A
:100FC000FC8189E280838B819C8101979C838B8348
:100FD000EB81FC8180E380838B819C8101979C83E2
:100FE0008B83EB81FC8181E380838B819C810197E2
:100FF0009C838B838B819C8128960FB6F894DEBFEF
:101000000FBECDBFCF91DF910895DF93CF93CDB7C2
:10101000DEB70E94F508A0912003B0912103CD9185
:10102000CDBFDD91DEBFFF91EF91DF91CF91BF91F9
:10103000AF919F918F917F916F915F914F913F9170
:101040002F911F910F91FF90EF90DF90CF90BF9065
:10105000AF909F908F907F906F905F904F903F9058
:101060002F901F900F900FBE0F90089581E0CF91A9
:10107000DF910895DF93CF93CDB7DEB7CF91DF91A6
:1010800008950F920FB6F8940F921F9211242F9289
:101090003F924F925F926F927F928F929F92AF9208
:1010A000BF92CF92DF92EF92FF920F931F932F93F5
:1010B0003F934F935F936F937F938F939F93AF93E0
:1010C000BF93CF93DF93EF93FF93A0912003B09151
:1010D00021030DB60D920EB60D920E94B111A09192
:1010E0002003B0912103CD91CDBFDD91DEBFFF91F3
:1010F000EF91DF91CF91BF91AF919F918F917F91B0
:101100006F915F914F913F912F911F910F91FF90A0
:10111000EF90DF90CF90BF90AF909F908F907F9097
:101120006F905F904F903F902F901F900F900FBE49
:101130000F9008950F920FB6F8940F921F921124FA
:101140002F923F924F925F926F927F928F929F92D7
:10115000AF92BF92CF92DF92EF92FF920F931F93C5
:101160002F933F934F935F936F937F938F939F93AF
:10117000AF93BF93CF93DF93EF93FF93A09120039F
:10118000B09121030DB60D920EB60D920E94DC10A7
:101190000E94B111A0912003B0912103CD91CDBF48
:1011A000DD91DEBFFF91EF91DF91CF91BF91AF91C4
:1011B0009F918F917F916F915F914F913F912F916F
:1011C0001F910F91FF90EF90DF90CF90BF90AF9065
:1011D0009F908F907F906F905F904F903F902F9057
:1011E0001F900F900FBE0F900895DF93CF9300D004
:1011F00000D000D0CDB7DEB780E49FE1A0E0B0E042
:101200008B839C83AD83BE838B819C81AD81BE81AA
:10121000689415F8B695A795979587951694D1F784
:101220008B839C83AD83BE838B819C81AD81BE818A
:101230000197A109B1098B839C83AD83BE838B8108
:1012400089838B819C81AD81BE81892F9A2FAB2FA1
:10125000BB278B839C83AD83BE838B818A83EBE426
:10126000F0E08A818083EAE4F0E0898180838BE08A
:101270008983EEE4F0E089818083E9E5F0E0808114
:101280008983898180618983E9E5F0E089818083B0
:1012900026960FB6F894DEBF0FBECDBFCF91DF917B
:1012A00008950E949A081895DF93CF93CDB7DEB7C3
:1012B00028970FB6F894DEBF0FBECDBF8F83688727
:1012C0001A8219828F81882309F48CC08FE190E003
:1012D0000E94DB049E838D838D819E81009709F49B
:1012E00081C08F81282F30E08885882F90E0AC0165
:1012F000249FC001259F900D349F900D11240196CD
:101300009C838B838B819C810E94DB04ED81FE8119
:1013100091838083ED81FE8180819181009709F422
:101320005DC0ED81FE81408151818F81282F30E0A9
:101330008885882F90E0BC01269FC001279F900DD3
:10134000369F900D1124840F951FED81FE819383AC
:101350008283ED81FE81128EED81FE8180819181FB
:10136000ED81FE8195838483ED81FE8140815181F1
:101370008F81882F90E09C01215030408885882FF4
:1013800090E0BC01269FC001279F900D369F900DD5
:101390001124840F951FED81FE8197838683ED8153
:1013A000FE818F81838FED81FE818885848FED8121
:1013B000FE818FEF858FED81FE818FEF868F8D818E
:1013C0009E8108960E9447058D819E8141960E94CC
:1013D00047058D819E819A83898304C08D819E817A
:1013E0000E94210589819A8128960FB6F894DEBF64
:1013F0000FBECDBFCF91DF910895DF93CF93CDB7CF
:10140000DEB72C970FB6F894DEBF0FBECDBF9E831C
:101410008D8378876F835A8749872B8719820FB608
:10142000F8940F92ED81FE81928DED81FE81838D86
:101430009817D8F48D819E812F813885B9014B850D
:101440000E94380CED81FE818189882349F08D81CD
:101450009E8141960E944D12813011F40E944108F4
:101460000F900FBE81E08C875CC089859A850097BC
:1014700021F40F900FBE1C8654C08981882331F45B
:10148000CE0102960E94B51281E089830F900FBEB3
:101490000E9411100FB6F8940F92ED81FE81858D98
:1014A0008F3F19F4ED81FE81158EED81FE81868DD1
:1014B0008F3F19F4ED81FE81168E0F900FBECE0185
:1014C00002969E01275F3F4FB9010E94CE128823EA
:1014D00009F58D819E810E949C0D8823A1F08D814C
:1014E0009E81089629853A85B9010E9417128D813F
:1014F0009E810E94150D0E941D10882309F08FCF38
:101500000E9441088CCF8D819E810E94150D0E9402
:101510001D1085CF8D819E810E94150D0E941D108A
:101520001C868C852C960FB6F894DEBF0FBECDBFFF
:10153000CF91DF910895DF93CF93CDB7DEB7299791
:101540000FB6F894DEBF0FBECDBF9C838B837E8326
:101550006D8358874F8329871982EB81FC81928D97
:10156000EB81FC81838D981740F58B819C812D81C7
:101570003E81B90149850E94380CEB81FC81868D42
:101580008F3F89F4EB81FC818189882399F08B81DD
:101590009C8141960E944D12882361F0EF81F8856D
:1015A00081E0808307C0EB81FC81868D8F5FEB81BA
:1015B000FC81868F81E08A8301C01A828A81299604
:1015C0000FB6F894DEBF0FBECDBFCF91DF91089567
:1015D000DF93CF93CDB7DEB72E970FB6F894DEBF6B
:1015E0000FBECDBF98878F837A8769875C874B87CB
:1015F0002D871B820FB6F8940F92EF81F885828DAC
:10160000882309F43FC0EF81F885868197819A830A
:1016100089838F81988529853A85B9010E94CD0CEF
:101620008D858823B1F4EF81F885828D8150EF811B
:10163000F885828FEF81F88580858823F1F08F818E
:10164000988508960E944D128130B9F40E94410895
:1016500014C0EF81F88589819A8197838683EF8111
:10166000F8858189882349F08F81988541960E9469
:101670004D12882311F00E9441080F900FBE81E0A7
:101680008E875CC08B859C85009721F40F900FBEE0
:101690001E8654C08B81882331F4CE0104960E94AB
:1016A000B51281E08B830F900FBE0E9411100FB610
:1016B000F8940F92EF81F885858D8F3F19F4EF81B3
:1016C000F885158EEF81F885868D8F3F19F4EF81AF
:1016D000F885168E0F900FBECE0104969E01255FF1
:1016E0003F4FB9010E94CE12882309F58F8198855A
:1016F0000E94690D8823A1F08F81988541962B85E2
:101700003C85B9010E9417128F8198850E94150DA2
:101710000E941D10882309F06DCF0E9441086ACFF6
:101720008F8198850E94150D0E941D1063CF8F81B7
:1017300098850E94150D0E941D101E868E852E967E
:101740000FB6F894DEBF0FBECDBFCF91DF910895E5
:10175000DF93CF93CDB7DEB728970FB6F894DEBFEF
:101760000FBECDBF9C838B837E836D8358874F8351
:101770001982EB81FC81828D882371F18B819C81A0
:101780002D813E81B9010E94CD0CEB81FC81828DBF
:101790008150EB81FC81828FEB81FC81858D8F3FB5
:1017A00089F4EB81FC818085882399F08B819C8171
:1017B00008960E944D12882361F0EF81F88581E040
:1017C000808307C0EB81FC81858D8F5FEB81FC817D
:1017D000858F81E08A8301C01A828A8128960FB69C
:1017E000F894DEBF0FBECDBFCF91DF910895DF9398
:1017F000CF9300D00F92CDB7DEB79B838A830FB60D
:10180000F8940F92EA81FB81828D89830F900FBE3D
:1018100089810F900F900F90CF91DF910895DF9302
:10182000CF9300D00F92CDB7DEB79B838A83EA8136
:10183000FB81828D898389810F900F900F90CF91CA
:10184000DF910895DF93CF9300D0CDB7DEB79A83B1
:101850008983E981FA81808191810E9421058981B2
:101860009A810E9421050F900F90CF91DF910895EA
:10187000DF93CF9300D000D00F92CDB7DEB79A831D
:1018800089837C836B834D83E981FA81848D8823EE
:1018900009F474C08D81882399F5E981FA81648106
:1018A0007581E981FA81848D482F50E02B813C813C
:1018B000CB01B9010E94C014E981FA8124813581EC
:1018C000E981FA81848D882F90E0820F931FE9814E
:1018D000FA8195838483E981FA8124813581E981C4
:1018E000FA81828193812817390708F447C0E9817A
:1018F000FA8180819181E981FA81958384833EC058
:10190000E981FA8166817781E981FA81848D482FA6
:1019100050E02B813C81CB01B9010E94C014E981C8
:10192000FA8126813781E981FA81848D882F90E0C0
:10193000909581959F4F820F931FE981FA8197833C
:101940008683E981FA8126813781E981FA81808164
:1019500091812817390790F4E981FA812281338136
:10196000E981FA81848D882F90E0909581959F4F31
:10197000820F931FE981FA8197838683E981FA8137
:10198000828D8F5FE981FA81828F0F900F900F9087
:101990000F900F90CF91DF910895DF93CF9300D0F8
:1019A00000D0CDB7DEB79A8389837C836B83E981CE
:1019B000FA8180819181009789F1E981FA812681FC
:1019C0003781E981FA81848D882F90E0820F931FFF
:1019D000E981FA8197838683E981FA8126813781BB
:1019E000E981FA81828193812817390740F0E981E2
:1019F000FA8180819181E981FA8197838683E981E7
:101A0000FA8146815781E981FA81848D282F30E05F
:101A10008B819C81BA01A9010E94C0140F900F9084
:101A20000F900F90CF91DF910895DF93CF9300D067
:101A3000CDB7DEB79A8389830FB6F8940F9215C09D
:101A4000E981FA8181898823A9F089819A81419667
:101A50000E944D12882311F00E942B13E981FA8114
:101A6000868D8150E981FA81868FE981FA81868DA0
:101A7000181634F3E981FA818FEF868F0F900FBE2D
:101A80000FB6F8940F9215C0E981FA8180858823FA
:101A9000A9F089819A8108960E944D12882311F03D
:101AA0000E942B13E981FA81858D8150E981FA81A9
:101AB000858FE981FA81858D181634F3E981FA81E1
:101AC0008FEF858F0F900FBE0F900F90CF91DF910A
:101AD0000895DF93CF9300D00F92CDB7DEB79B83ED
:101AE0008A830FB6F8940F92EA81FB81828D198266
:101AF000882311F481E089830F900FBE89810F90B4
:101B00000F900F90CF91DF910895DF93CF9300D086
:101B10000F92CDB7DEB79B838A83EA81FB81828DEA
:101B20001982882311F481E0898389810F900F90B5
:101B30000F90CF91DF910895DF93CF9300D00F9254
:101B4000CDB7DEB79B838A830FB6F8940F92EA81F4
:101B5000FB81928DEA81FB81838D1982981711F4A4
:101B600081E089830F900FBE89810F900F900F90B5
:101B7000CF91DF910895DF93CF9300D00F92CDB72F
:101B8000DEB79B838A83EA81FB81928DEA81FB81A8
:101B9000838D1982981711F481E0898389810F90D0
:101BA0000F900F90CF91DF910895AF92BF92CF9297
:101BB000DF92EF92FF920F931F93DF93CF93CDB7F6
:101BC000DEB764970FB6F894DEBF0FBECDBF9F831C
:101BD0008E83798768875B874A873D872C870E8746
:101BE000F88AEF86DA8AC98ABC8AAB8A8A859B859D
:101BF00029893A89B9010E945A149C838B838B816D
:101C00009C81009709F499C0EB81FC812789308D74
:101C10008A859B850197820F931F9A8389838B8185
:101C20009C8128853985EB89FC89AA85BB85B9010A
:101C30004E859F018D010E943F1389819A812E81DB
:101C40003F814C855D85B9010E948206EB81FC8154
:101C5000918380838F859889009731F0EF85F8898B
:101C60008B819C81918380830FB6F8940F92809131
:101C700023038F5F8093230380912003909121039E
:101C8000009769F48B819C819093210380932003BA
:101C9000809123038130A9F40E94961312C0809191
:101CA0002803882371F4E0912003F09121039689A1
:101CB0008E85891730F08B819C81909321038093CE
:101CC0002003EB81FC81968980912603891728F4F3
:101CD000EB81FC8186898093260380912D038F5FA1
:101CE00080932D03EB81FC819689809127038917CE
:101CF00028F4EB81FC81868980932703EB81FC81AA
:101D00008689282F30E0C901880F991F880F991FF5
:101D1000880F991F820F931FAC01425D5C4F8B812E
:101D20009C819C012E5F3F4FCA01B9010E94810531
:101D300081E08D830F900FBE02C08FEF8D838D8168
:101D4000813071F480912803882351F0E0912003C1
:101D5000F091210396898E85981710F40E9441080E
:101D60008D8164960FB6F894DEBF0FBECDBFCF91C4
:101D7000DF911F910F91FF90EF90DF90CF90BF9078
:101D8000AF900895DF93CF9300D000D000D0CDB7AF
:101D9000DEB79C838B830FB6F8940F9220912003BB
:101DA000309121038B819C818217930711F41C824F
:101DB0001B828B819C81009739F480912003909144
:101DC00021039E838D8304C08B819C819E838D83A0
:101DD0008D819E819A83898389819A8102960E944E
:101DE0003906E981FA8184899589009729F08981EA
:101DF0009A810C960E94390689819A819C012E5FF6
:101E00003F4F8AE793E0B9010E9481058091220348
:101E10008F5F8093220380912D038F5F80932D032A
:101E20000F900FBE80912803882331F08B819C8115
:101E3000009711F40E94410826960FB6F894DEBF71
:101E40000FBECDBFCF91DF910895DF93CF93CDB774
:101E5000DEB728970FB6F894DEBF0FBECDBF9E83C6
:101E60008D8378876F8319820E941110ED81FE8126
:101E7000208131818F819885820F931F9C838B8372
:101E8000ED81FE8120813181809124039091250391
:101E900082179307A8F4ED81FE81208131818B8127
:101EA0009C818217930700F520912403309125032C
:101EB0008B819C8128173907B8F481E0898314C08D
:101EC000ED81FE81208131818B819C818217930776
:101ED00048F020912403309125038B819C812817A1
:101EE000390710F481E08983ED81FE818B819C812B
:101EF000918380838981882359F080912003909178
:101F0000210302960E9439068B819C810E94111444
:101F10000E941D108A838A81882311F40E9441083F
:101F200028960FB6F894DEBF0FBECDBFCF91DF91DC
:101F30000895DF93CF9300D000D00F92CDB7DEB7D6
:101F40009D838C8319828C819D810097D1F00E94A2
:101F5000111020912403309125038C819D81820FE3
:101F6000931F9B838A838091200390912103029683
:101F70000E9439068A819B810E9411140E941D10C3
:101F800089838981882311F40E9441080F900F9062
:101F90000F900F900F90CF91DF910895AF92BF9265
:101FA000CF92DF92EF92FF920F93DF93CF930F9236
:101FB000CDB7DEB72FE730E085E393E1B90145E522
:101FC00050E020E030E000E0EE24FF24CC24DD24CB
:101FD000AA24BB240E94D50D89838981813051F4C4
:101FE000F89481E080932803109225031092240333
:101FF0000E9405080F90CF91DF910F91FF90EF9015
:10200000DF90CF90BF90AF900895DF93CF93CDB77F
:10201000DEB7F894109228030E943A08CF91DF911E
:102020000895DF93CF93CDB7DEB7809129038F5FFB
:1020300080932903CF91DF910895DF93CF9300D050
:1020400000D0CDB7DEB71A820FB6F8940F92809108
:10205000290381508093290380912903882309F063
:102060006CC080912303882309F467C0198241C0A2
:10207000E0917603F0917703868197819C838B832F
:102080008B819C810C960E9439068B819C810296E3
:102090000E943906EB81FC8196898091270389177C
:1020A00028F4EB81FC81868980932703EB81FC81F6
:1020B0008689282F30E0C901880F991F880F991F42
:1020C000880F991F820F931F825D9C4F2B813C814B
:1020D0002E5F3F4FB9010E948105EB81FC819689FB
:1020E000E0912003F09121038689981710F081E098
:1020F000898380917103882309F0BACF80912A03E4
:10210000882371F007C00E94DC1080912A0381505F
:1021100080932A0380912A038823A9F781E0898389
:102120008981813021F080912B03813031F481E06D
:102130008A8310922B030E9441080F900FBE8A8160
:102140000F900F900F900F90CF91DF910895DF9334
:10215000CF9300D0CDB7DEB70FB6F8940F92809131
:102160002403909125039A8389830F900FBE898160
:102170009A810F900F90CF91DF910895DF93CF93C5
:1021800000D00F92CDB7DEB71982809124039091D1
:1021900025039B838A838A819B810F900F900F90E8
:1021A000CF91DF910895DF93CF93CDB7DEB78091C4
:1021B0002303CF91DF910895DF93CF9300D000D018
:1021C00000D0CDB7DEB780912903882309F0BBC0CA
:1021D0008091240390912503019690932503809389
:1021E000240380912403909125030097D1F58091D9
:1021F0006D0390916E039C838B8380916F0390910C
:10220000700390936E0380936D038B819C819093F8
:10221000700380936F0380912C038F5F80932C0356
:10222000E0916D03F0916E038081882339F48FEF84
:102230009FEF909387008093860013C0E0916D0319
:10224000F0916E030580F681E02D868197819E8353
:102250008D83ED81FE8182819381909387008093AD
:10226000860020912403309125038091860090916F
:1022700087002817390708F46BC0E0916D03F091CF
:102280006E038081882339F48FEF9FEF909387004E
:10229000809386005DC0E0916D03F0916E03058030
:1022A000F681E02D868197819E838D83ED81FE816D
:1022B000828193819A83898320912403309125031D
:1022C00089819A812817390738F489819A819093F6
:1022D0008700809386003CC08D819E8102960E947B
:1022E0003906ED81FE8184899589009729F08D81D9
:1022F0009E810C960E943906ED81FE81968980911F
:102300002703891728F4ED81FE81868980932703AE
:10231000ED81FE818689282F30E0C901880F991F41
:10232000880F991F880F991F820F931FAC01425D80
:102330005C4F8D819E819C012E5F3F4FCA01B90188
:102340000E9481059ACF80912A038F5F80932A0390
:1023500026960FB6F894DEBF0FBECDBFCF91DF91AA
:102360000895DF93CF9300D0CDB7DEB780912903D6
:10237000882349F081E080932B0354C08091270388
:1023800081508093270380912703282F30E0C901D3
:10239000880F991F880F991F880F991F820F931F0D
:1023A000FC01E25DFC4F8081882341F3809127038B
:1023B000282F30E0C901880F991F880F991F880FB7
:1023C000991F820F931F825D9C4F9A838983E981B5
:1023D000FA810180F281E02D82819381E981FA8185
:1023E00092838183E981FA812181328189819A8175
:1023F00003962817390759F4E981FA810180F2819F
:10240000E02D82819381E981FA8192838183E98140
:10241000FA810180F281E02D8681978190932103DA
:10242000809320030F900F90CF91DF910895DF9359
:10243000CF9300D000D000D0CDB7DEB79C838B8384
:102440007E836D834B815C81809120039091210379
:102450009C01245F3F4FCA01B9010E94CD058091C4
:1024600020039091210302960E94390620912403B3
:10247000309125038D819E81820F931F9A838983DA
:1024800089819A810E94111426960FB6F894DEBFB6
:102490000FBECDBFCF91DF910895DF93CF9300D0D2
:1024A00000D00F92CDB7DEB79D838C83EC81FD8188
:1024B0000580F681E02D868197819B838A838A81BE
:1024C0009B810C960E94390680912903882361F52F
:1024D0008A819B8102960E943906EA81FB81968956
:1024E00080912703891728F4EA81FB8186898093EC
:1024F0002703EA81FB818689282F30E0C901880FF4
:10250000991F880F991F880F991F820F931FAC0185
:10251000425D5C4F8A819B819C012E5F3F4FCA01C7
:10252000B9010E9481050AC08A819B819C01245FB8
:102530003F4F81E793E0B9010E948105EA81FB8169
:102540009689E0912003F09121038689981718F06D
:1025500081E0898301C0198289810F900F900F90CB
:102560000F900F90CF91DF910895DF93CF9300D01C
:10257000CDB7DEB79A83898380912C03E981FA81F4
:1025800080838091240390912503E981FA819283CD
:1025900081830F900F90CF91DF910895DF93CF93B8
:1025A00000D000D00F92CDB7DEB79B838A837D83A6
:1025B0006C830FB6F8940F92EA81FB819081809131
:1025C0002C03981771F0EA81FB812181328180917F
:1025D0002403909125038217930718F081E08983E3
:1025E0002FC02091240330912503EA81FB81818152
:1025F0009281281B390BEC81FD8180819181281704
:102600003907E0F4EC81FD8140815181EA81FB8151
:10261000218132818091240390912503B901681BA7
:10262000790BCB01840F951FEC81FD819183808311
:102630008A819B810E94B512198202C081E0898340
:102640000F900FBE89810F900F900F900F900F90F9
:10265000CF91DF910895DF93CF93CDB7DEB781E0BF
:1026600080932B03CF91DF910895DF93CF9300D018
:10267000CDB7DEB79A8389830E94D313FDCF0F9322
:102680001F93DF93CF93CDB7DEB729970FB6F8949A
:10269000DEBF0FBECDBF9A8389837C836B834D835E
:1026A0003F832E831987088789819A8149962B81D8
:1026B0003C81B90148E050E00E94D014E981FA81E0
:1026C00010A28D81853010F084E08D83E981FA813C
:1026D0008D81868B89819A8102960E9471058981FC
:1026E0009A810C960E947105E981FA8189819A810B
:1026F000918780878D81282F30E085E090E0821BD4
:10270000930BE981FA8195878487E981FA81898130
:102710009A81938B828B29960FB6F894DEBF0FBEF9
:10272000CDBFCF91DF911F910F910895DF93CF938C
:102730000F92CDB7DEB7198213C08981282F30E000
:10274000C901880F991F880F991F880F991F820F41
:10275000931F825D9C4F0E94470589818F5F89830B
:102760008981853050F38BE593E00E94470584E62C
:1027700093E00E94470581E793E00E9447058AE7BE
:1027800093E00E9447058BE593E090936E0380935E
:102790006D0384E693E09093700380936F030F9032
:1027A000CF91DF910895DF93CF9300D00F92CDB7F3
:1027B000DEB780912203882371F10E94111080916D
:1027C0007A031B82882311F481E08B830E941D1001
:1027D0008B81882301F50FB6F8940F92E0917F0367
:1027E000F0918003868197819A83898389819A8178
:1027F00002960E943906809123038150809323031F
:10280000809122038150809322030F900FBE898113
:102810009A810E94AA140F900F900F90CF91DF9190
:102820000895DF93CF9300D0CDB7DEB79A83898325
:10283000E0912003F091210389819A81938382831F
:10284000209124033091250389819A81821793076F
:1028500070F480916F039091700320912003309168
:1028600021032E5F3F4FB9010E94CD051EC040914C
:102870006D0350916E0380912003909121039C0180
:102880002E5F3F4FCA01B9010E94CD0520918600FD
:102890003091870089819A818217930730F489816A
:1028A0009A8190938700809386000F900F90CF912C
:1028B000DF910895DF93CF93CDB7DEB728970FB69A
:1028C000F894DEBF0FBECDBF9C838B837E836D8368
:1028D00081E290E00E94DB049A83898389819A8156
:1028E000009769F18D819E81009739F48B819C81DD
:1028F0000E94DB0498878F8304C08D819E81988716
:102900008F83E981FA818F819885908F878BE98108
:10291000FA818789908D009739F489819A810E9484
:1029200021051A8219820BC0E981FA818789908D6D
:102930002B813C8165EA70E0A9010E94C91489815C
:102940009A8128960FB6F894DEBF0FBECDBFCF9107
:10295000DF910895DF93CF9300D0CDB7DEB79A8390
:102960008983E981FA818789908D0E942105898177
:102970009A810E9421050F900F90CF91DF910895C9
:10298000FB01DC0102C001900D9241505040D8F78C
:102990000895DC0101C06D9341505040E0F7089567
:1029A000FB01DC014150504048F001900D920020A5
:1029B000C9F701C01D9241505040E0F70895F894C6
:0229C000FFCF47
:1029C2005075736820427574746F6E005075736829
:1029D20020427574746F6E2032004C656420004989
:0829E200444C45000101FFFF18
:00000001FF
