:100000000C942A000C9447000C9447000C94470071
:100010000C9447000C9447000C9447000C94CD08B6
:100020000C9447000C9447000C9447000C94470034
:100030000C9447000C9447000C9447000C94470024
:100040000C9447000C9447000C9447000C94470014
:100050000C94470011241FBECFE5D8E0DEBFCDBF12
:1000600010E0A0E6B0E0EAEBF8E202C005900D92E5
:10007000A038B107D9F713E0A0E8B0E001C01D92A5
:10008000A937B107E1F70E9449000C945B140C9466
:100090000000AF92BF92CF92DF92EF92FF920F9348
:1000A000DF93CF9300D000D000D0CDB7DEB71A8257
:1000B000198220E630E087ED90E0B90145E550E097
:1000C00020E030E003E0FE0131967F01CC24DD2406
:1000D000AA24BB240E94510D1C821B8226E630E01C
:1000E0008DE191E0FE013396B90145E550E020E055
:1000F00030E002E07F01CC24DD24AA24BB240E944E
:10010000510D1E821D8224E730E08AE591E0FE0158
:100110003596B90145E550E020E030E001E07F018F
:10012000CC24DD24AA24BB240E94510D0E94C500CA
:1001300081E060E00E94D00890938100809380006D
:100140008091800090918100009759F0809180000B
:100150009091810060E070E040E050E020E00E947B
:1001600079090E944A0F80E090E026960FB6F89435
:10017000DEBF0FBECDBFCF91DF910F91FF90EF900B
:10018000DF90CF90BF90AF900895DF93CF93CDB71E
:10019000DEB7E7E3F0E08FEF8083E4E3F0E0108286
:1001A000E5E3F0E08FEF8083CF91DF910895DF9357
:1001B000CF9300D000D000D0CDB7DEB79E838D8323
:1001C00088EE93E09A8389830E9423109C838B831B
:1001D00084E190E00E94150F0CC084E690E00E943C
:1001E000150FA8E3B0E0E8E3F0E0908182E0892712
:1001F0008C93809180009091810060E070E044E6F3
:1002000050E020E00E94640A882339F380E197E2FD
:100210000E94150F809180009091810060E070E055
:1002200040E050E020E00E947909CE010396298148
:100230003A81B9010E94A10EDCCFDF93CF9300D0A9
:1002400000D000D0CDB7DEB79E838D8384E690E0EA
:100250009A8389830E9423109C838B8380918000E2
:100260009091810060E070E044E650E020E00E9460
:10027000640A882399F3A8E3B0E0E8E3F0E0908112
:1002800084E089278C9388EE93E00E94150F80917B
:1002900080009091810060E070E040E050E020E05C
:1002A0000E947909CE01039629813A81B9010E9401
:1002B000A10ED4CFDF93CF9300D000D000D0CDB724
:1002C000DEB79E838D8384E690E09A8389830E94C3
:1002D00023109C838B838EE190E00E94150FA8E38E
:1002E000B0E0E8E3F0E0908181E089278C93CE01D3
:1002F000039629813A81B9010E94A10EF0CFDF93C4
:10030000CF93CDB7DEB727970FB6F894DEBF0FBEF9
:10031000CDBF9D838C836E834F838AE190E00E94E2
:1003200057049A83898389819A81009709F46FC061
:100330008091820090918300009741F489819A8195
:1003400090938300809382000E94E6038E81823026
:1003500010F081E08E83E981FA81118E108EE9819F
:10036000FA818E81868BE981FA818F81878BE98181
:10037000FA818C819D819183808389819A81029603
:100380000E94ED0489819A810C960E94ED04E98116
:10039000FA8189819A8191878087E981FA818981AF
:1003A0009A81938B828B8E81282F30E085E090E0BC
:1003B000821B930BE981FA8195878487E981FA8111
:1003C000968980918400891728F4E981FA818689C9
:1003D00080938400E981FA818689282F30E0C90161
:1003E000880F991F880F991F880F991F820F931FDD
:1003F000AC0145575F4F89819A819C012E5F3F4F29
:10040000CA01B9010E94FD0481E08B8302C08FEF15
:100410008B838B8127960FB6F894DEBF0FBECDBFBE
:10042000CF91DF910895DF93CF9300D000D000D01B
:10043000CDB7DEB79C838B837E836D83209185004F
:10044000309186008B819C81820F931F9A838983D0
:10045000809182009091830002960E94B505E09100
:100460008200F091830089819A8193838283209115
:1004700085003091860089819A818217930770F4F4
:100480008091B1009091B200209182003091830060
:100490002E5F3F4FB9010E9449050DC08091AF000A
:1004A0009091B00020918200309183002E5F3F4FE9
:1004B000B9010E9449058D819E81009761F080916C
:1004C0008200909183009C01245F3F4F8D819E812B
:1004D000B9010E94490526960FB6F894DEBF0FBEFB
:1004E000CDBFCF91DF910895DF93CF9300D0CDB7EB
:1004F000DEB73AC0F894E091B800F091B900868177
:1005000097819A83898389819A810C960E94B50587
:10051000789489819A8102960E94B505E981FA81D1
:10052000968980918400891728F4E981FA81868967
:1005300080938400E981FA818689282F30E0C901FF
:10054000880F991F880F991F880F991F820F931F7B
:10055000AC0145575F4F89819A819C012E5F3F4FC7
:10056000CA01B9010E94FD048091B300882309F0FB
:10057000C1CF0F900F90CF91DF910895DF93CF936C
:1005800000D000D0CDB7DEB70E94231020918700A5
:1005900030918800821B930B90938A00809389008E
:1005A00085C0809185009091860001969093860089
:1005B000809385008091890090918A0001979093A3
:1005C0008A00809389008091850090918600009731
:1005D00009F064C08091AF009091B0009A83898344
:1005E0008091B1009091B2009093B0008093AF00E1
:1005F00089819A819093B2008093B1004FC0E091BD
:10060000AF00F091B0000580F681E02D86819781E2
:100610009C838B83EB81FC812281338180918500D7
:10062000909186008217930708F440C0F8948B815C
:100630009C8102960E94B505EB81FC818489958995
:10064000009729F08B819C810C960E94B5057894C7
:10065000EB81FC81968980918400891728F4EB81D5
:10066000FC81868980938400EB81FC818689282F18
:1006700030E0C901880F991F880F991F880F991FB3
:10068000820F931FAC0145575F4F8B819C819C016A
:100690002E5F3F4FCA01B9010E94FD04E091AF00F7
:1006A000F091B0008081882309F0A9CF8091890062
:1006B00090918A00009709F074CF80918500909105
:1006C000860090938800809387000F900F900F9082
:1006D0000F90CF91DF910895DF93CF9300D0CDB7E6
:1006E000DEB70E9474020E94BE020AC0809184009C
:1006F000882309F466C0809184008150809384002F
:1007000080918400282F30E0C901880F991F880F3D
:10071000991F880F991F820F931FFC01E557FF4F08
:100720008081882319F380918400282F30E0C9014B
:10073000880F991F880F991F880F991F820F931F89
:1007400085579F4F9A838983E981FA810180F281DD
:10075000E02D82819381E981FA8192838183E9810D
:10076000FA812181328189819A810396281739077C
:1007700059F4E981FA810180F281E02D828193812F
:10078000E981FA8192838183E981FA810180F28192
:10079000E02D868197819093830080938200E09181
:1007A0008200F0918300408151818091820090917C
:1007B0008300E0918200F09183002789622FFA0183
:1007C00009950F900F90CF91DF910895DF93CF930C
:1007D0000F92CDB7DEB7198213C08981282F30E080
:1007E000C901880F991F880F991F880F991F820FC1
:1007F000931F85579F4F0E94C30489818F5F898310
:100800008981823050F38DE990E00E94C30486EA2A
:1008100090E00E94C30483EB90E00E94C3048DE942
:1008200090E09093B0008093AF0086EA90E09093C0
:10083000B2008093B1000F90CF91DF910895DF93C4
:10084000CF9300D000D00F92CDB7DEB79D838C83BD
:10085000EC81FD810580F681E02D868197819B8367
:100860008A838A819B810C960E94B5058A819B812F
:100870009C01245F3F4F83EB90E0B9010E94FD048F
:10088000EA81FB819689E0918200F091830086895C
:10089000981718F081E0898301C0198289810F902F
:1008A0000F900F900F900F90CF91DF910895DF93ED
:1008B000CF9300D000D0CDB7DEB79C838B831A8254
:1008C00019820E948D0F8091BC009091BD002B81F8
:1008D0003C81820F931F22E08835920718F5209102
:1008E000BC003091BD008B819C81280F391F809105
:1008F000BC009091BD0082179307A0F48091BC00CA
:100900009091BD0082549F4F9A8389832091BC00AF
:100910003091BD008B819C81820F931F9093BD000D
:100920008093BC000E94990F89819A810F900F904B
:100930000F900F90CF91DF910895DF93CF9300D068
:10094000CDB7DEB79A8389830F900F90CF91DF9157
:100950000895DF93CF93CDB7DEB71092BD0010920C
:10096000BC00CF91DF910895DF93CF93CDB7DEB771
:100970002091BC003091BD0088E592E0821B930B72
:10098000CF91DF910895DF93CF9300D0CDB7DEB73D
:100990009A83898389819A810396E981FA81928376
:1009A0008183E981FA818FEF9FEF9483838389812B
:1009B0009A810396E981FA819683858389819A8158
:1009C0000396E981FA8190878783E981FA81108211
:1009D0000F900F90CF91DF910895DF93CF9300D0C8
:1009E000CDB7DEB79A838983E981FA8111861086B3
:1009F0000F900F90CF91DF910895DF93CF9300D0A8
:100A000000D000D0CDB7DEB79C838B837E836D830F
:100A1000EB81FC81818192819A838983E981FA81CA
:100A200082819381ED81FE8193838283EB81FC81BE
:100A300081819281ED81FE8195838483E981FA81B0
:100A40000280F381E02D8D819E81958384838D8149
:100A50009E81E981FA81938382838D819E81EB81DE
:100A6000FC8192838183ED81FE818B819C819187C2
:100A70008087EB81FC8180818F5FEB81FC818083AB
:100A800026960FB6F894DEBF0FBECDBFCF91DF9193
:100A90000895DF93CF93CDB7DEB728970FB6F894BC
:100AA000DEBF0FBECDBF9E838D8378876F83EF81BE
:100AB000F885808191819A83898389819A812FEF3A
:100AC0008F3F920739F4ED81FE81878190859C8369
:100AD0008B8318C08D819E8103969C838B8306C077
:100AE000EB81FC81828193819C838B83EB81FC81F0
:100AF0000280F381E02D2081318189819A818217E2
:100B0000930770F7EB81FC8182819381EF81F885F7
:100B100093838283EF81F8850280F381E02D8F81BA
:100B2000988595838483EF81F8858B819C8195835B
:100B300084838F819885EB81FC8193838283EF810D
:100B4000F8858D819E8191878087ED81FE818081EE
:100B50008F5FED81FE81808328960FB6F894DEBF0B
:100B60000FBECDBFCF91DF910895DF93CF9300D01B
:100B700000D0CDB7DEB79C838B83EB81FC81A28153
:100B8000B381EB81FC818481958115969C938E9332
:100B90001497EB81FC81A481B581EB81FC8182817A
:100BA000938113969C938E931297EB81FC818085A1
:100BB00091859A838983E981FA81218132818B81B0
:100BC0009C812817390741F4EB81FC818481958150
:100BD000E981FA8192838183EB81FC811186108601
:100BE000E981FA8180818150E981FA8180830F90C7
:100BF0000F900F900F90CF91DF910895DF93CF93D7
:100C0000CDB7DEB728970FB6F894DEBF0FBECDBFC5
:100C10009C838B837E836D8358874F83EB81FC811C
:100C200081E180838B819C8101979C838B83EB8105
:100C3000FC8182E280838B819C8101979C838B83E2
:100C4000EB81FC8183E380838B819C8101979C8372
:100C50008B838D819E819A8389838981EB81FC813D
:100C600080838B819C8101979C838B8389819A816E
:100C7000892F99279A8389838981EB81FC818083DD
:100C80008B819C8101979C838B83EB81FC811082FB
:100C90008B819C8101979C838B83EB81FC8180E815
:100CA00080838B819C8101979C838B83EB81FC816A
:100CB00010828B819C8101979C838B83EB81FC81CB
:100CC00082E080838B819C8101979C838B83EB8165
:100CD000FC8183E080838B819C8101979C838B8343
:100CE000EB81FC8184E080838B819C8101979C83D4
:100CF0008B83EB81FC8185E080838B819C810197D4
:100D00009C838B83EB81FC8186E080838B819C813B
:100D100001979C838B83EB81FC8187E080838B81AF
:100D20009C8101979C838B83EB81FC8188E080838D
:100D30008B819C8101979C838B83EB81FC8189E073
:100D400080838B819C8101979C838B83EB81FC81C9
:100D500080E180838B819C8101979C838B83EB81D5
:100D6000FC8181E180838B819C8101979C838B83B3
:100D7000EB81FC8182E180838B819C8101979C8344
:100D80008B83EB81FC8183E180838B819C81019744
:100D90009C838B83EB81FC8184E180838B819C81AC
:100DA00001979C838B83EB81FC8185E180838B8120
:100DB0009C8101979C838B83EB81FC8186E18083FE
:100DC0008B819C8101979C838B83EB81FC8187E1E4
:100DD00080838B819C8101979C838B83EB81FC8139
:100DE00088E180838B819C8101979C838B83EB813D
:100DF000FC8189E180838B819C8101979C838B831B
:100E0000EB81FC8180E280838B819C8101979C83B4
:100E10008B83EB81FC8181E280838B819C810197B4
:100E20009C838B83EB81FC8182E280838B819C811C
:100E300001979C838B83EB81FC8183E280838B8190
:100E40009C8101979C838B838F8198859A8389836A
:100E50008981EB81FC8180838B819C8101979C83BC
:100E60008B8389819A81892F99279A8389838981A4
:100E7000EB81FC8180838B819C8101979C838B8398
:100E8000EB81FC8186E280838B819C8101979C832E
:100E90008B83EB81FC8187E280838B819C8101972E
:100EA0009C838B83EB81FC8188E280838B819C8196
:100EB00001979C838B83EB81FC8189E280838B810A
:100EC0009C8101979C838B83EB81FC8180E38083F1
:100ED0008B819C8101979C838B83EB81FC8181E3D7
:100EE00080838B819C8101979C838B838B819C81E8
:100EF00028960FB6F894DEBF0FBECDBFCF91DF911D
:100F00000895DF93CF93CDB7DEB70E947108A0910B
:100F10001603B0911703CD91CDBFDD91DEBFFF91D8
:100F2000EF91DF91CF91BF91AF919F918F917F9181
:100F30006F915F914F913F912F911F910F91FF9072
:100F4000EF90DF90CF90BF90AF909F908F907F9069
:100F50006F905F904F903F902F901F900F900FBE1B
:100F60000F90089581E0CF91DF910895DF93CF93A3
:100F7000CDB7DEB7CF91DF9108950F920FB6F894F9
:100F80000F921F9211242F923F924F925F926F9275
:100F90007F928F929F92AF92BF92CF92DF92EF9209
:100FA000FF920F931F932F933F934F935F936F93F2
:100FB0007F938F939F93AF93BF93CF93DF93EF93E1
:100FC000FF93A0911603B09117030DB60D920EB6C4
:100FD0000D920E942D11A0911603B0911703CD918F
:100FE000CDBFDD91DEBFFF91EF91DF91CF91BF913A
:100FF000AF919F918F917F916F915F914F913F91B1
:101000002F911F910F91FF90EF90DF90CF90BF90A5
:10101000AF909F908F907F906F905F904F903F9098
:101020002F901F900F900FBE0F9008950F920FB644
:10103000F8940F921F9211242F923F924F925F9239
:101040006F927F928F929F92AF92BF92CF92DF92D8
:10105000EF92FF920F931F932F933F934F935F93C2
:101060006F937F938F939F93AF93BF93CF93DF93B0
:10107000EF93FF93A0911603B09117030DB60D9255
:101080000EB60D920E9458100E942D11A0911603C9
:10109000B0911703CD91CDBFDD91DEBFFF91EF91F0
:1010A000DF91CF91BF91AF919F918F917F916F9180
:1010B0005F914F913F912F911F910F91FF90EF9072
:1010C000DF90CF90BF90AF909F908F907F906F9068
:1010D0005F904F903F902F901F900F900FBE0F90FA
:1010E0000895DF93CF9300D000D000D0CDB7DEB706
:1010F00080E49FE1A0E0B0E08B839C83AD83BE835E
:101100008B819C81AD81BE81689415F8B695A795B9
:10111000979587951694D1F78B839C83AD83BE8377
:101120008B819C81AD81BE810197A109B1098B831F
:101130009C83AD83BE838B8189838B819C81AD81B0
:10114000BE81892F9A2FAB2FBB278B839C83AD83C6
:10115000BE838B818A83EBE4F0E08A818083EAE4BA
:10116000F0E0898180838BE08983EEE4F0E089817F
:101170008083E9E5F0E080818983898180618983CA
:10118000E9E5F0E08981808326960FB6F894DEBF0A
:101190000FBECDBFCF91DF9108950E94160818951C
:1011A000DF93CF93CDB7DEB728970FB6F894DEBFA5
:1011B0000FBECDBF8F8368871A8219828F818823E3
:1011C00009F48CC08FE190E00E9457049E838D83C8
:1011D0008D819E81009709F481C08F81282F30E096
:1011E0008885882F90E0AC01249FC001259F900D39
:1011F000349F900D112401969C838B838B819C815D
:101200000E945704ED81FE8191838083ED81FE81F0
:1012100080819181009709F45DC0ED81FE8140815C
:1012200051818F81282F30E08885882F90E0BC0184
:10123000269FC001279F900D369F900D1124840F8B
:10124000951FED81FE8193838283ED81FE81128E55
:10125000ED81FE8180819181ED81FE819583848382
:10126000ED81FE81408151818F81882F90E09C012A
:10127000215030408885882F90E0BC01269FC00116
:10128000279F900D369F900D1124840F951FED819F
:10129000FE8197838683ED81FE818F81838FED812F
:1012A000FE818885848FED81FE818FEF858FED81B2
:1012B000FE818FEF868F8D819E8108960E94C304E8
:1012C0008D819E8141960E94C3048D819E819A8367
:1012D000898304C08D819E810E949D0489819A81A9
:1012E00028960FB6F894DEBF0FBECDBFCF91DF9129
:1012F0000895DF93CF93CDB7DEB72C970FB6F89450
:10130000DEBF0FBECDBF9E838D8378876F835A87E4
:1013100049872B8719820FB6F8940F92ED81FE81D1
:10132000928DED81FE81838D9817D8F48D819E81F9
:101330002F813885B9014B850E94B40BED81FE8168
:101340008189882349F08D819E8141960E94C9112F
:10135000813011F40E94BD070F900FBE81E08C8791
:101360005CC089859A85009721F40F900FBE1C867A
:1013700054C08981882331F4CE0102960E94311233
:1013800081E089830F900FBE0E948D0F0FB6F894F5
:101390000F92ED81FE81858D8F3F19F4ED81FE81E5
:1013A000158EED81FE81868D8F3F19F4ED81FE81D2
:1013B000168E0F900FBECE0102969E01275F3F4F03
:1013C000B9010E944A12882309F58D819E810E94ED
:1013D000180D8823A1F08D819E81089629853A8574
:1013E000B9010E9493118D819E810E94910C0E94EF
:1013F000990F882309F08FCF0E94BD078CCF8D8174
:101400009E810E94910C0E94990F85CF8D819E81B3
:101410000E94910C0E94990F1C868C852C960FB609
:10142000F894DEBF0FBECDBFCF91DF910895DF935B
:10143000CF93CDB7DEB729970FB6F894DEBF0FBEB6
:10144000CDBF9C838B837E836D8358874F83298791
:101450001982EB81FC81928DEB81FC81838D981741
:1014600040F58B819C812D813E81B90149850E9487
:10147000B40BEB81FC81868D8F3F89F4EB81FC817D
:101480008189882399F08B819C8141960E94C911A2
:10149000882361F0EF81F88581E0808307C0EB81CC
:1014A000FC81868D8F5FEB81FC81868F81E08A8352
:1014B00001C01A828A8129960FB6F894DEBF0FBE4A
:1014C000CDBFCF91DF910895DF93CF93CDB7DEB736
:1014D0002E970FB6F894DEBF0FBECDBF98878F83CF
:1014E0007A8769875C874B872D871B820FB6F894B4
:1014F0000F92EF81F885828D882309F43FC0EF8138
:10150000F885868197819A8389838F81988529853B
:101510003A85B9010E94490C8D858823B1F4EF8189
:10152000F885828D8150EF81F885828FEF81F88573
:1015300080858823F1F08F81988508960E94C911D3
:101540008130B9F40E94BD0714C0EF81F88589810C
:101550009A8197838683EF81F8858189882349F072
:101560008F81988541960E94C911882311F00E94AD
:10157000BD070F900FBE81E08E875CC08B859C8578
:10158000009721F40F900FBE1E8654C08B818823D4
:1015900031F4CE0104960E94311281E08B830F90CA
:1015A0000FBE0E948D0F0FB6F8940F92EF81F88551
:1015B000858D8F3F19F4EF81F885158EEF81F885C1
:1015C000868D8F3F19F4EF81F885168E0F900FBE30
:1015D000CE0104969E01255F3F4FB9010E944A1239
:1015E000882309F58F8198850E94E50C8823A1F056
:1015F0008F81988541962B853C85B9010E94931176
:101600008F8198850E94910C0E94990F882309F080
:101610006DCF0E94BD076ACF8F8198850E94910C83
:101620000E94990F63CF8F8198850E94910C0E9430
:10163000990F1E868E852E960FB6F894DEBF0FBECC
:10164000CDBFCF91DF910895DF93CF93CDB7DEB7B4
:1016500028970FB6F894DEBF0FBECDBF9C838B8357
:101660007E836D8358874F831982EB81FC81828D45
:10167000882371F18B819C812D813E81B9010E946B
:10168000490CEB81FC81828D8150EB81FC81828F42
:10169000EB81FC81858D8F3F89F4EB81FC81808516
:1016A000882399F08B819C8108960E94C911882318
:1016B00061F0EF81F88581E0808307C0EB81FC81D8
:1016C000858D8F5FEB81FC81858F81E08A8301C0EE
:1016D0001A828A8128960FB6F894DEBF0FBECDBF5E
:1016E000CF91DF910895DF93CF9300D00F92CDB7C4
:1016F000DEB79B838A830FB6F8940F92EA81FB8151
:10170000828D89830F900FBE89810F900F900F906B
:10171000CF91DF910895DF93CF9300D00F92CDB793
:10172000DEB79B838A83EA81FB81828D89838981ED
:101730000F900F900F90CF91DF910895DF93CF938B
:1017400000D0CDB7DEB79A838983E981FA818081A1
:1017500091810E949D0489819A810E949D040F902D
:101760000F90CF91DF910895DF93CF9300D000D0F9
:101770000F92CDB7DEB79A8389837C836B834D83C9
:10178000E981FA81848D882309F474C08D818823CE
:1017900099F5E981FA8164817581E981FA81848D05
:1017A000482F50E02B813C81CB01B9010E943C14B1
:1017B000E981FA8124813581E981FA81848D882F3C
:1017C00090E0820F931FE981FA8195838483E981F8
:1017D000FA8124813581E981FA81828193812817F8
:1017E000390708F447C0E981FA8180819181E98154
:1017F000FA81958384833EC0E981FA81668177818D
:10180000E981FA81848D482F50E02B813C81CB0106
:10181000B9010E943C14E981FA8126813781E9816E
:10182000FA81848D882F90E0909581959F4F820F4B
:10183000931FE981FA8197838683E981FA81268162
:101840003781E981FA81808191812817390790F4E5
:10185000E981FA8122813381E981FA81848D882F9F
:1018600090E0909581959F4F820F931FE981FA81B7
:1018700097838683E981FA81828D8F5FE981FA817E
:10188000828F0F900F900F900F900F90CF91DF915C
:101890000895DF93CF9300D000D0CDB7DEB79A8301
:1018A00089837C836B83E981FA81808191810097B0
:1018B00089F1E981FA8126813781E981FA81848D74
:1018C000882F90E0820F931FE981FA8197838683A6
:1018D000E981FA8126813781E981FA8182819381C8
:1018E0002817390740F0E981FA8180819181E981E7
:1018F000FA8197838683E981FA8146815781E9815C
:10190000FA81848D282F30E08B819C81BA01A90156
:101910000E943C140F900F900F900F90CF91DF9189
:101920000895DF93CF9300D0CDB7DEB79A83898334
:101930000FB6F8940F9215C0E981FA818189882346
:10194000A9F089819A8141960E94C911882311F0DA
:101950000E94A712E981FA81868D8150E981FA817E
:10196000868FE981FA81868D181634F3E981FA8130
:101970008FEF868F0F900FBE0FB6F8940F9215C0A1
:10198000E981FA8180858823A9F089819A81089666
:101990000E94C911882311F00E94A712E981FA81DF
:1019A000858D8150E981FA81858FE981FA81858D64
:1019B000181634F3E981FA818FEF858F0F900FBEEF
:1019C0000F900F90CF91DF910895DF93CF9300D0C8
:1019D0000F92CDB7DEB79B838A830FB6F8940F9230
:1019E000EA81FB81828D1982882311F481E0898349
:1019F0000F900FBE89810F900F900F90CF91DF91C4
:101A00000895DF93CF9300D00F92CDB7DEB79B83BD
:101A10008A83EA81FB81828D1982882311F481E017
:101A2000898389810F900F900F90CF91DF91089556
:101A3000DF93CF9300D00F92CDB7DEB79B838A831D
:101A40000FB6F8940F92EA81FB81928DEA81FB81B7
:101A5000838D1982981711F481E089830F900FBE4E
:101A600089810F900F900F90CF91DF910895DF93B0
:101A7000CF9300D00F92CDB7DEB79B838A83EA81E4
:101A8000FB81928DEA81FB81838D1982981711F475
:101A900081E0898389810F900F900F90CF91DF9122
:101AA0000895AF92BF92CF92DF92EF92FF920F9381
:101AB0001F93DF93CF93CDB7DEB764970FB6F8943B
:101AC000DEBF0FBECDBF9F838E83798768875B871C
:101AD0004A873D872C870E87F88AEF86DA8AC98A7B
:101AE000BC8AAB8A8A859B8529893A89B9010E947B
:101AF000D6139C838B838B819C81009709F499C0BA
:101B0000EB81FC812789308D8A859B850197820F27
:101B1000931F9A8389838B819C8128853985EB89E2
:101B2000FC89AA85BB85B9014E859F018D010E9464
:101B3000BB1289819A812E813F814C855D85B901D7
:101B40000E94FE05EB81FC81918380838F859889BB
:101B5000009731F0EF85F8898B819C819183808398
:101B60000FB6F8940F92809119038F5F8093190339
:101B70008091160390911703009769F48B819C81E3
:101B80009093170380931603809119038130A9F471
:101B90000E94121312C080911E03882371F4E091F9
:101BA0001603F091170396898E85891730F08B8183
:101BB0009C819093170380931603EB81FC81968997
:101BC00080911C03891728F4EB81FC81868980931E
:101BD0001C03809123038F5F80932303EB81FC819F
:101BE000968980911D03891728F4EB81FC818689F1
:101BF00080931D03EB81FC818689282F30E0C90189
:101C0000880F991F880F991F880F991F820F931FA4
:101C1000AC014C5D5C4F8B819C819C012E5F3F4FE2
:101C2000CA01B9010E94FD0481E08D830F900FBEAF
:101C300002C08FEF8D838D81813071F480911E03FE
:101C4000882351F0E0911603F091170396898E8551
:101C5000981710F40E94BD078D8164960FB6F89412
:101C6000DEBF0FBECDBFCF91DF911F910F91FF90CF
:101C7000EF90DF90CF90BF90AF900895DF93CF9318
:101C800000D000D000D0CDB7DEB79C838B830FB6D9
:101C9000F8940F9220911603309117038B819C8149
:101CA0008217930711F41C821B828B819C81009701
:101CB00039F480911603909117039E838D8304C09D
:101CC0008B819C819E838D838D819E819A83898364
:101CD00089819A8102960E94B505E981FA818489F9
:101CE0009589009729F089819A810C960E94B50503
:101CF00089819A819C012E5F3F4F80E793E0B90173
:101D00000E94FD04809118038F5F809318038091D7
:101D100023038F5F809323030F900FBE80911E03D8
:101D2000882331F08B819C81009711F40E94BD07BC
:101D300026960FB6F894DEBF0FBECDBFCF91DF91D0
:101D40000895DF93CF93CDB7DEB728970FB6F894F9
:101D5000DEBF0FBECDBF9E838D8378876F831982D0
:101D60000E948D0FED81FE81208131818F819885C8
:101D7000820F931F9C838B83ED81FE8120813181B3
:101D800080911A0390911B0382179307A8F4ED81A9
:101D9000FE81208131818B819C818217930700F520
:101DA00020911A0330911B038B819C8128173907DE
:101DB000B8F481E0898314C0ED81FE8120813181F6
:101DC0008B819C818217930748F020911A033091F0
:101DD0001B038B819C812817390710F481E08983CC
:101DE000ED81FE818B819C81918380838981882311
:101DF00059F0809116039091170302960E94B50541
:101E00008B819C810E948D130E94990F8A838A8105
:101E1000882311F40E94BD0728960FB6F894DEBF00
:101E20000FBECDBFCF91DF910895DF93CF9300D048
:101E300000D00F92CDB7DEB79D838C8319828C8141
:101E40009D810097D1F00E948D0F20911A0330914F
:101E50001B038C819D81820F931F9B838A838091BA
:101E600016039091170302960E94B5058A819B8103
:101E70000E948D130E94990F89838981882311F410
:101E80000E94BD070F900F900F900F900F90CF9171
:101E9000DF910895AF92BF92CF92DF92EF92FF92BF
:101EA0000F93DF93CF930F92CDB7DEB729E730E0E2
:101EB00081EB92E1B90145E550E020E030E000E03F
:101EC000EE24FF24CC24DD24AA24BB240E94510D3F
:101ED00089838981813051F4F89481E080931E03D5
:101EE00010921B0310921A030E9481070F90CF914A
:101EF000DF910F91FF90EF90DF90CF90BF90AF9068
:101F00000895DF93CF93CDB7DEB7F89410921E03F8
:101F10000E94B607CF91DF910895DF93CF93CDB79D
:101F2000DEB780911F038F5F80931F03CF91DF91F6
:101F30000895DF93CF9300D000D0CDB7DEB71A82DB
:101F40000FB6F8940F9280911F03815080931F0366
:101F500080911F03882309F06CC0809119038823A6
:101F600009F467C0198241C0E0916C03F0916D03E0
:101F7000868197819C838B838B819C810C960E94A8
:101F8000B5058B819C8102960E94B505EB81FC8191
:101F9000968980911D03891728F4EB81FC8186893D
:101FA00080931D03EB81FC818689282F30E0C901D5
:101FB000880F991F880F991F880F991F820F931FF1
:101FC0008C5D9C4F2B813C812E5F3F4FB9010E945D
:101FD000FD04EB81FC819689E0911603F0911703D3
:101FE0008689981710F081E08983809167038823A0
:101FF00009F0BACF80912003882371F007C00E94B6
:1020000058108091200381508093200380912003F9
:102010008823A9F781E089838981813021F080912B
:102020002103813031F481E08A83109221030E94E0
:10203000BD070F900FBE8A810F900F900F900F90E9
:10204000CF91DF910895DF93CF9300D0CDB7DEB766
:102050000FB6F8940F9280911A0390911B039A8304
:1020600089830F900FBE89819A810F900F90CF9135
:10207000DF910895DF93CF9300D00F92CDB7DEB7F5
:10208000198280911A0390911B039B838A838A8112
:102090009B810F900F900F90CF91DF910895DF9368
:1020A000CF93CDB7DEB780911903CF91DF9108951B
:1020B000DF93CF9300D000D000D0CDB7DEB78091B2
:1020C0001F03882309F0BBC080911A0390911B0362
:1020D000019690931B0380931A0380911A039091A9
:1020E0001B030097D1F580916303909164039C8357
:1020F0008B83809165039091660390936403809332
:1021000063038B819C819093660380936503809128
:1021100022038F5F80932203E0916303F0916403B5
:102120008081882339F48FEF9FEF90937F00809315
:102130007E0013C0E0916303F09164030580F68193
:10214000E02D868197819E838D83ED81FE81828142
:10215000938190937F0080937E0020911A033091A9
:102160001B0380917E0090917F002817390708F4A7
:102170006BC0E0916303F09164038081882339F49C
:102180008FEF9FEF90937F0080937E005DC0E09182
:102190006303F09164030580F681E02D86819781C9
:1021A0009E838D83ED81FE81828193819A838983D1
:1021B00020911A0330911B0389819A8128173907CE
:1021C00038F489819A8190937F0080937E003CC08F
:1021D0008D819E8102960E94B505ED81FE818489E4
:1021E0009589009729F08D819E810C960E94B505F6
:1021F000ED81FE81968980911D03891728F4ED8178
:10220000FE81868980931D03ED81FE818689282FBA
:1022100030E0C901880F991F880F991F880F991FF7
:10222000820F931FAC014C5D5C4F8D819E819C01A0
:102230002E5F3F4FCA01B9010E94FD049ACF8091E1
:1022400020038F5F8093200326960FB6F894DEBF9D
:102250000FBECDBFCF91DF910895DF93CF9300D014
:10226000CDB7DEB780911F03882349F081E08093CA
:10227000210354C080911D03815080931D038091E0
:102280001D03282F30E0C901880F991F880F991F5F
:10229000880F991F820F931FFC01EC5DFC4F80811A
:1022A000882341F380911D03282F30E0C901880F56
:1022B000991F880F991F880F991F820F931F8C5D9C
:1022C0009C4F9A838983E981FA810180F281E02D14
:1022D00082819381E981FA8192838183E981FA8104
:1022E0002181328189819A8103962817390759F40F
:1022F000E981FA810180F281E02D82819381E98177
:10230000FA8192838183E981FA810180F281E02D53
:102310008681978190931703809316030F900F90F7
:10232000CF91DF910895DF93CF9300D000D000D0FC
:10233000CDB7DEB79C838B837E836D834B815C81BD
:1023400080911603909117039C01245F3F4FCA01AF
:10235000B9010E94490580911603909117030296D6
:102360000E94B50520911A0330911B038D819E8137
:10237000820F931F9A83898389819A810E948D138A
:1023800026960FB6F894DEBF0FBECDBFCF91DF917A
:102390000895DF93CF9300D000D00F92CDB7DEB772
:1023A0009D838C83EC81FD810580F681E02D868103
:1023B00097819B838A838A819B810C960E94B505B5
:1023C00080911F03882361F58A819B8102960E9478
:1023D000B505EA81FB81968980911D03891728F450
:1023E000EA81FB81868980931D03EA81FB818689CE
:1023F000282F30E0C901880F991F880F991F880F77
:10240000991F820F931FAC014C5D5C4F8A819B81A9
:102410009C012E5F3F4FCA01B9010E94FD040AC012
:102420008A819B819C01245F3F4F87E693E0B9013D
:102430000E94FD04EA81FB819689E0911603F091E8
:1024400017038689981718F081E0898301C01982E3
:1024500089810F900F900F900F900F90CF91DF9187
:102460000895DF93CF9300D0CDB7DEB79A838983E9
:1024700080912203E981FA81808380911A039091EF
:102480001B03E981FA81928381830F900F90CF9192
:10249000DF910895DF93CF9300D000D00F92CDB796
:1024A000DEB79B838A837D836C830FB6F8940F928B
:1024B000EA81FB81908180912203981771F0EA8173
:1024C000FB812181328180911A0390911B03821735
:1024D000930718F081E089832FC020911A0330916F
:1024E0001B03EA81FB8181819281281B390BEC81DE
:1024F000FD818081918128173907E0F4EC81FD810D
:1025000040815181EA81FB812181328180911A03CE
:1025100090911B03B901681B790BCB01840F951FA8
:10252000EC81FD81918380838A819B810E9431129D
:10253000198202C081E089830F900FBE89810F90BC
:102540000F900F900F900F90CF91DF910895DF9330
:10255000CF93CDB7DEB781E080932103CF91DF9198
:102560000895DF93CF9300D0CDB7DEB79A838983E8
:102570000E944F13FDCF0F931F93DF93CF93CDB7DF
:10258000DEB729970FB6F894DEBF0FBECDBF9A8392
:1025900089837C836B834D833F832E8319870887D0
:1025A00089819A8149962B813C81B90148E050E0AC
:1025B0000E944C14E981FA8110A28D81853010F0BF
:1025C00084E08D83E981FA818D81868B89819A816E
:1025D00002960E94ED0489819A810C960E94ED0476
:1025E000E981FA8189819A81918780878D81282F5D
:1025F00030E085E090E0821B930BE981FA819587BA
:102600008487E981FA8189819A81938B828B2996CB
:102610000FB6F894DEBF0FBECDBFCF91DF911F91F3
:102620000F910895DF93CF930F92CDB7DEB7198244
:1026300013C08981282F30E0C901880F991F880FA6
:10264000991F880F991F820F931F8C5D9C4F0E94CA
:10265000C30489818F5F89838981853050F381E547
:1026600093E00E94C3048AE593E00E94C30487E6D6
:1026700093E00E94C30480E793E00E94C30481E5D5
:1026800093E090936403809363038AE593E09093CF
:102690006603809365030F90CF91DF910895DF93D8
:1026A000CF9300D00F92CDB7DEB780911803882367
:1026B00071F10E948D0F809170031B82882311F4A9
:1026C00081E08B830E94990F8B81882301F50FB6DF
:1026D000F8940F92E0917503F091760386819781CB
:1026E0009A83898389819A8102960E94B505809197
:1026F00019038150809319038091180381508093AE
:1027000018030F900FBE89819A810E9426140F90A2
:102710000F900F90CF91DF910895DF93CF9300D06A
:10272000CDB7DEB79A838983E0911603F091170342
:1027300089819A819383828320911A0330911B03AC
:1027400089819A818217930770F480916503909133
:10275000660320911603309117032E5F3F4FB90196
:102760000E9449051EC0409163035091640380910B
:102770001603909117039C012E5F3F4FCA01B901C8
:102780000E94490520917E0030917F0089819A81C5
:102790008217930730F489819A8190937F00809308
:1027A0007E000F900F90CF91DF910895DF93CF932C
:1027B000CDB7DEB728970FB6F894DEBF0FBECDBFFA
:1027C0009C838B837E836D8381E290E00E9457041B
:1027D0009A83898389819A81009769F18D819E818D
:1027E000009739F48B819C810E94570498878F83CE
:1027F00004C08D819E8198878F83E981FA818F81C2
:102800009885908F878BE981FA818789908D0097D1
:1028100039F489819A810E949D041A8219820BC021
:10282000E981FA818789908D2B813C8165EA70E08E
:10283000A9010E94451489819A8128960FB6F894BF
:10284000DEBF0FBECDBFCF91DF910895DF93CF9351
:1028500000D0CDB7DEB79A838983E981FA81878971
:10286000908D0E949D0489819A810E949D040F9001
:102870000F90CF91DF910895FB01DC0102C0019020
:102880000D9241505040D8F70895DC0101C06D937E
:1028900041505040E0F70895FB01DC0141505040A9
:1028A00048F001900D920020C9F701C01D924150DF
:0A28B0005040E0F70895F894FFCFC0
:1028BA004C65642032005075736820427574746FD9
:1028CA006E2032004C6564200049444C4500FFFFED
:00000001FF
