:100000000C942A000C9447000C9447000C94470071
:100010000C9447000C9447000C9447000C9469081A
:100020000C9447000C9447000C9447000C94470034
:100030000C9447000C9447000C9447000C94470024
:100040000C9447000C9447000C9447000C94470014
:100050000C94470011241FBECFE5D8E0DEBFCDBF12
:1000600010E0A0E6B0E0E0EBF9E202C005900D92EE
:10007000AA37B107D9F713E0AAE7B0E001C01D9293
:10008000A737B107E1F70E9449000C94D6140C94ED
:100090000000AF92BF92CF92DF92EF92FF920F9348
:1000A000DF93CF93CDB7DEB720E630E080EC90E071
:1000B000EEE7F0E0B90145E550E020E030E002E095
:1000C0007F01CC24DD24AA24BB240E94ED0C2EE663
:1000D00030E08DEE90E0ECE7F0E0B90145E550E06E
:1000E00020E030E001E07F01CC24DD24AA24BB2401
:1000F0000E94ED0C0E94AE0081E060E00E946C085E
:1001000090937B0080937A0080917A0090917B009D
:10011000009759F080917A0090917B0060E070E048
:1001200040E050E020E00E94150980917A00909113
:100130007B0060E070E044E650E020E00E94000AAE
:100140000E94C50F80E090E0CF91DF910F91FF906A
:10015000EF90DF90CF90BF90AF900895DF93CF9353
:10016000CDB7DEB7E7E3F0E08FEF8083E4E3F0E0C4
:100170001082E5E3F0E08FEF8083CF91DF91089567
:10018000DF93CF9300D000D000D0CDB7DEB79E83F1
:100190008D8386E990E09A8389830E949E109C83D8
:1001A0008B83E3E3F0E08081882F90E08170907092
:1001B000009759F480917A0090917B0060E070E0A4
:1001C00040E050E020E00E941509CE01039629810D
:1001D0003A81B9010E943D0EE4CFDF93CF9300D066
:1001E00000D000D0CDB7DEB79E838D8386E990E046
:1001F0009A8389830E949E109C838B8380917A00CE
:1002000090917B0060E070E044E650E020E00E94C6
:10021000000A882399F3A8E3B0E0E8E3F0E09081D6
:1002200081E089278C93CE01039629813A81B90117
:100230000E943D0EE3CFDF93CF93CDB7DEB7279774
:100240000FB6F894DEBF0FBECDBF9D838C836E8347
:100250004F838AE190E00E94F3039A838983898126
:100260009A81009709F46FC080918000909181007D
:10027000009741F489819A81909381008093800056
:100280000E9482038E81823010F081E08E83E981AA
:10029000FA81118E108EE981FA818E81868BE98137
:1002A000FA818F81878BE981FA818C819D8191838D
:1002B000808389819A8102960E94890489819A812A
:1002C0000C960E948904E981FA8189819A8191873B
:1002D0008087E981FA8189819A81938B828B8E81D3
:1002E000282F30E085E090E0821B930BE981FA81B2
:1002F00095878487E981FA819689809182008917A0
:1003000028F4E981FA81868980938200E981FA8163
:100310008689282F30E0C901880F991F880F991FFF
:10032000880F991F820F931FAC0147575F4F898138
:100330009A819C012E5F3F4FCA01B9010E94990426
:1003400081E08B8302C08FEF8B838B8127960FB662
:10035000F894DEBF0FBECDBFCF91DF910895DF933C
:10036000CF9300D000D000D0CDB7DEB79C838B8375
:100370007E836D8320918300309184008B819C81EA
:10038000820F931F9A8389838091800090918100CE
:1003900002960E945105E0918000F09181008981D0
:1003A0009A81938382832091830030918400898194
:1003B0009A818217930770F48091AF009091B000FA
:1003C00020918000309181002E5F3F4FB9010E9443
:1003D000E5040DC08091AD009091AE0020918000A9
:1003E000309181002E5F3F4FB9010E94E5048D815D
:1003F0009E81009761F080918000909181009C0126
:10040000245F3F4F8D819E81B9010E94E5042696AD
:100410000FB6F894DEBF0FBECDBFCF91DF91089528
:10042000DF93CF9300D0CDB7DEB73AC0F894E09118
:10043000B600F091B700868197819A83898389817C
:100440009A810C960E945105789489819A8102962E
:100450000E945105E981FA8196898091820089176D
:1004600028F4E981FA81868980938200E981FA8102
:100470008689282F30E0C901880F991F880F991F9E
:10048000880F991F820F931FAC0147575F4F8981D7
:100490009A819C012E5F3F4FCA01B9010E949904C5
:1004A0008091B100882309F0C1CF0F900F90CF91B8
:1004B000DF910895DF93CF9300D000D0CDB7DEB7A2
:1004C0000E949E102091850030918600821B930B24
:1004D000909388008093870085C0809183009091DD
:1004E000840001969093840080938300809187001C
:1004F0009091880001979093880080938700809165
:10050000830090918400009709F064C08091AD0051
:100510009091AE009A8389838091AF009091B00052
:100520009093AE008093AD0089819A819093B00042
:100530008093AF004FC0E091AD00F091AE00058018
:10054000F681E02D868197819C838B83EB81FC81F2
:1005500022813381809183009091840082179307D8
:1005600008F440C0F8948B819C8102960E9451054A
:10057000EB81FC8184899589009729F08B819C818E
:100580000C960E9451057894EB81FC8196898091AC
:100590008200891728F4EB81FC8186898093820090
:1005A000EB81FC818689282F30E0C901880F991FD3
:1005B000880F991F880F991F820F931FAC0147570F
:1005C0005F4F8B819C819C012E5F3F4FCA01B90117
:1005D0000E949904E091AD00F091AE0080818823E3
:1005E00009F0A9CF8091870090918800009709F0C9
:1005F00074CF8091830090918400909386008093C3
:1006000085000F900F900F900F90CF91DF9108957C
:10061000DF93CF9300D0CDB7DEB70E9410020E94C7
:100620005A020AC080918200882309F466C0809132
:10063000820081508093820080918200282F30E0D8
:10064000C901880F991F880F991F880F991F820F62
:10065000931FFC01E757FF4F8081882319F3809196
:100660008200282F30E0C901880F991F880F991F39
:10067000880F991F820F931F87579F4F9A838983F3
:10068000E981FA810180F281E02D82819381E98103
:10069000FA8192838183E981FA8121813281898182
:1006A0009A8103962817390759F4E981FA81018064
:1006B000F281E02D82819381E981FA8192838183A5
:1006C000E981FA810180F281E02D86819781909302
:1006D000810080938000E0918000F0918100408152
:1006E00051818091800090918100E0918000F09193
:1006F00081002789622FFA0109950F900F90CF9101
:10070000DF910895DF93CF930F92CDB7DEB71982B3
:1007100013C08981282F30E0C901880F991F880FE5
:10072000991F880F991F820F931F87579F4F0E9411
:100730005F0489818F5F89838981823050F38BE9DF
:1007400090E00E945F0484EA90E00E945F0481EBE5
:1007500090E00E945F048BE990E09093AE0080935C
:10076000AD0084EA90E09093B0008093AF000F90CA
:10077000CF91DF910895DF93CF9300D000D00F92F7
:10078000CDB7DEB79D838C83EC81FD810580F6813A
:10079000E02D868197819B838A838A819B810C9639
:1007A0000E9451058A819B819C01245F3F4F81EB10
:1007B00090E0B9010E949904EA81FB819689E09159
:1007C0008000F09181008689981718F081E0898374
:1007D00001C0198289810F900F900F900F900F9098
:1007E000CF91DF910895DF93CF9300D000D0CDB7A4
:1007F000DEB79C838B831A8219820E940810809135
:10080000BA009091BB002B813C81820F931F22E0A4
:100810008835920718F52091BA003091BB008B8182
:100820009C81280F391F8091BA009091BB008217DC
:100830009307A0F48091BA009091BB0084549F4F1D
:100840009A8389832091BA003091BB008B819C816F
:10085000820F931F9093BB008093BA000E941410E4
:1008600089819A810F900F900F900F90CF91DF9117
:100870000895DF93CF9300D0CDB7DEB79A838983F5
:100880000F900F90CF91DF910895DF93CF93CDB765
:10089000DEB71092BB001092BA00CF91DF9108959D
:1008A000DF93CF93CDB7DEB72091BA003091BB0074
:1008B00088E592E0821B930BCF91DF910895DF933F
:1008C000CF9300D0CDB7DEB79A83898389819A818F
:1008D0000396E981FA8192838183E981FA818FEF1E
:1008E0009FEF9483838389819A810396E981FA81BA
:1008F0009683858389819A810396E981FA8190871D
:100900008783E981FA8110820F900F90CF91DF9158
:100910000895DF93CF9300D0CDB7DEB79A83898354
:10092000E981FA81118610860F900F90CF91DF91A7
:100930000895DF93CF9300D000D000D0CDB7DEB7BD
:100940009C838B837E836D83EB81FC81818192818B
:100950009A838983E981FA8182819381ED81FE8185
:1009600093838283EB81FC8181819281ED81FE8181
:1009700095838483E981FA810280F381E02D8D8162
:100980009E81958384838D819E81E981FA81938301
:1009900082838D819E81EB81FC8192838183ED81B5
:1009A000FE818B819C8191878087EB81FC81808196
:1009B0008F5FEB81FC81808326960FB6F894DEBFB3
:1009C0000FBECDBFCF91DF910895DF93CF93CDB709
:1009D000DEB728970FB6F894DEBF0FBECDBF9E835B
:1009E0008D8378876F83EF81F885808191819A83E9
:1009F000898389819A812FEF8F3F920739F4ED81A6
:100A0000FE81878190859C838B8318C08D819E8118
:100A100003969C838B8306C0EB81FC81828193814A
:100A20009C838B83EB81FC810280F381E02D20810C
:100A3000318189819A818217930770F7EB81FC815C
:100A400082819381EF81F88593838283EF81F8859A
:100A50000280F381E02D8F81988595838483EF81D7
:100A6000F8858B819C81958384838F819885EB8128
:100A7000FC8193838283EF81F8858D819E819187AC
:100A80008087ED81FE8180818F5FED81FE81808393
:100A900028960FB6F894DEBF0FBECDBFCF91DF9181
:100AA0000895DF93CF9300D000D0CDB7DEB79C83FD
:100AB0008B83EB81FC81A281B381EB81FC818481FA
:100AC000958115969C938E931497EB81FC81A4815C
:100AD000B581EB81FC818281938113969C938E93E7
:100AE0001297EB81FC81808591859A838983E981C6
:100AF000FA81218132818B819C812817390741F449
:100B0000EB81FC8184819581E981FA8192838183E3
:100B1000EB81FC8111861086E981FA818081815008
:100B2000E981FA8180830F900F900F900F90CF9101
:100B3000DF910895DF93CF93CDB7DEB728970FB637
:100B4000F894DEBF0FBECDBF9C838B837E836D8305
:100B500058874F83EB81FC8181E180838B819C816D
:100B600001979C838B83EB81FC8182E280838B8164
:100B70009C8101979C838B83EB81FC8183E3808341
:100B80008B819C8101979C838B838D819E819A832D
:100B900089838981EB81FC8180838B819C81019792
:100BA0009C838B8389819A81892F99279A83898352
:100BB0008981EB81FC8180838B819C8101979C835F
:100BC0008B83EB81FC8110828B819C8101979C83BC
:100BD0008B83EB81FC8180E880838B819C810197F2
:100BE0009C838B83EB81FC8110828B819C8101979C
:100BF0009C838B83EB81FC8182E080838B819C8151
:100C000001979C838B83EB81FC8183E080838B81C4
:100C10009C8101979C838B83EB81FC8184E08083A2
:100C20008B819C8101979C838B83EB81FC8185E088
:100C300080838B819C8101979C838B83EB81FC81DA
:100C400086E080838B819C8101979C838B83EB81E1
:100C5000FC8187E080838B819C8101979C838B83BF
:100C6000EB81FC8188E080838B819C8101979C8350
:100C70008B83EB81FC8189E080838B819C81019750
:100C80009C838B83EB81FC8180E180838B819C81C1
:100C900001979C838B83EB81FC8181E180838B8135
:100CA0009C8101979C838B83EB81FC8182E1808313
:100CB0008B819C8101979C838B83EB81FC8183E1F9
:100CC00080838B819C8101979C838B83EB81FC814A
:100CD00084E180838B819C8101979C838B83EB8152
:100CE000FC8185E180838B819C8101979C838B8330
:100CF000EB81FC8186E180838B819C8101979C83C1
:100D00008B83EB81FC8187E180838B819C810197C0
:100D10009C838B83EB81FC8188E180838B819C8128
:100D200001979C838B83EB81FC8189E180838B819C
:100D30009C8101979C838B83EB81FC8180E2808383
:100D40008B819C8101979C838B83EB81FC8181E269
:100D500080838B819C8101979C838B83EB81FC81B9
:100D600082E280838B819C8101979C838B83EB81C2
:100D7000FC8183E280838B819C8101979C838B83A0
:100D80008F8198859A8389838981EB81FC81808317
:100D90008B819C8101979C838B8389819A81892F88
:100DA00099279A8389838981EB81FC8180838B8158
:100DB0009C8101979C838B83EB81FC8186E28083FD
:100DC0008B819C8101979C838B83EB81FC8187E2E3
:100DD00080838B819C8101979C838B83EB81FC8139
:100DE00088E280838B819C8101979C838B83EB813C
:100DF000FC8189E280838B819C8101979C838B831A
:100E0000EB81FC8180E380838B819C8101979C83B3
:100E10008B83EB81FC8181E380838B819C810197B3
:100E20009C838B838B819C8128960FB6F894DEBFC0
:100E30000FBECDBFCF91DF910895DF93CF93CDB794
:100E4000DEB70E940D08A0911403B0911503CD9157
:100E5000CDBFDD91DEBFFF91EF91DF91CF91BF91CB
:100E6000AF919F918F917F916F915F914F913F9142
:100E70002F911F910F91FF90EF90DF90CF90BF9037
:100E8000AF909F908F907F906F905F904F903F902A
:100E90002F901F900F900FBE0F90089581E0CF917B
:100EA000DF910895DF93CF93CDB7DEB7CF91DF9178
:100EB00008950F920FB6F8940F921F9211242F925B
:100EC0003F924F925F926F927F928F929F92AF92DA
:100ED000BF92CF92DF92EF92FF920F931F932F93C7
:100EE0003F934F935F936F937F938F939F93AF93B2
:100EF000BF93CF93DF93EF93FF93A0911403B0912F
:100F000015030DB60D920EB60D920E94A811A09178
:100F10001403B0911503CD91CDBFDD91DEBFFF91DC
:100F2000EF91DF91CF91BF91AF919F918F917F9181
:100F30006F915F914F913F912F911F910F91FF9072
:100F4000EF90DF90CF90BF90AF909F908F907F9069
:100F50006F905F904F903F902F901F900F900FBE1B
:100F60000F9008950F920FB6F8940F921F921124CC
:100F70002F923F924F925F926F927F928F929F92A9
:100F8000AF92BF92CF92DF92EF92FF920F931F9397
:100F90002F933F934F935F936F937F938F939F9381
:100FA000AF93BF93CF93DF93EF93FF93A09114037D
:100FB000B09115030DB60D920EB60D920E94D3108E
:100FC0000E94A811A0911403B0911503CD91CDBF3B
:100FD000DD91DEBFFF91EF91DF91CF91BF91AF9196
:100FE0009F918F917F916F915F914F913F912F9141
:100FF0001F910F91FF90EF90DF90CF90BF90AF9037
:101000009F908F907F906F905F904F903F902F9028
:101010001F900F900FBE0F900895DF93CF9300D0D5
:1010200000D000D0CDB7DEB780E49FE1A0E0B0E013
:101030008B839C83AD83BE838B819C81AD81BE817C
:10104000689415F8B695A795979587951694D1F756
:101050008B839C83AD83BE838B819C81AD81BE815C
:101060000197A109B1098B839C83AD83BE838B81DA
:1010700089838B819C81AD81BE81892F9A2FAB2F73
:10108000BB278B839C83AD83BE838B818A83EBE4F8
:10109000F0E08A818083EAE4F0E0898180838BE05C
:1010A0008983EEE4F0E089818083E9E5F0E08081E6
:1010B0008983898180618983E9E5F0E08981808382
:1010C00026960FB6F894DEBF0FBECDBFCF91DF914D
:1010D00008950E94B2071895DF93CF93CDB7DEB77E
:1010E00028970FB6F894DEBF0FBECDBF8F836887F9
:1010F0001A8219828F81882309F48CC08FE190E0D5
:101100000E94F3039E838D838D819E81009709F455
:1011100081C08F81282F30E08885882F90E0AC0136
:10112000249FC001259F900D349F900D112401969E
:101130009C838B838B819C810E94F303ED81FE81D4
:1011400091838083ED81FE8180819181009709F4F4
:101150005DC0ED81FE81408151818F81282F30E07B
:101160008885882F90E0BC01269FC001279F900DA5
:10117000369F900D1124840F951FED81FE8193837E
:101180008283ED81FE81128EED81FE8180819181CD
:10119000ED81FE8195838483ED81FE8140815181C3
:1011A0008F81882F90E09C01215030408885882FC6
:1011B00090E0BC01269FC001279F900D369F900DA7
:1011C0001124840F951FED81FE8197838683ED8125
:1011D000FE818F81838FED81FE818885848FED81F3
:1011E000FE818FEF858FED81FE818FEF868F8D8160
:1011F0009E8108960E945F048D819E8141960E9487
:101200005F048D819E819A83898304C08D819E8134
:101210000E94390489819A8128960FB6F894DEBF1E
:101220000FBECDBFCF91DF910895DF93CF93CDB7A0
:10123000DEB72C970FB6F894DEBF0FBECDBF9E83EE
:101240008D8378876F835A8749872B8719820FB6DA
:10125000F8940F92ED81FE81928DED81FE81838D58
:101260009817D8F48D819E812F813885B9014B85DF
:101270000E94500BED81FE818189882349F08D8188
:101280009E8141960E944412813011F40E945907B8
:101290000F900FBE81E08C875CC089859A8500978E
:1012A00021F40F900FBE1C8654C08981882331F42D
:1012B000CE0102960E94AC1281E089830F900FBE8E
:1012C0000E9408100FB6F8940F92ED81FE81858D73
:1012D0008F3F19F4ED81FE81158EED81FE81868DA3
:1012E0008F3F19F4ED81FE81168E0F900FBECE0157
:1012F00002969E01275F3F4FB9010E94C5128823C5
:1013000009F58D819E810E94B40C8823A1F08D8106
:101310009E81089629853A85B9010E940E128D8119
:101320009E810E942D0C0E941410882309F08FCFFB
:101330000E9459078CCF8D819E810E942D0C0E94A6
:10134000141085CF8D819E810E942D0C0E94141057
:101350001C868C852C960FB6F894DEBF0FBECDBFD1
:10136000CF91DF910895DF93CF93CDB7DEB7299763
:101370000FB6F894DEBF0FBECDBF9C838B837E83F8
:101380006D8358874F8329871982EB81FC81928D69
:10139000EB81FC81838D981740F58B819C812D8199
:1013A0003E81B90149850E94500BEB81FC81868DFD
:1013B0008F3F89F4EB81FC818189882399F08B81AF
:1013C0009C8141960E944412882361F0EF81F88548
:1013D00081E0808307C0EB81FC81868D8F5FEB818C
:1013E000FC81868F81E08A8301C01A828A812996D6
:1013F0000FB6F894DEBF0FBECDBFCF91DF91089539
:10140000DF93CF93CDB7DEB72E970FB6F894DEBF3C
:101410000FBECDBF98878F837A8769875C874B879C
:101420002D871B820FB6F8940F92EF81F885828D7D
:10143000882309F43FC0EF81F885868197819A83DC
:1014400089838F81988529853A85B9010E94E50BAA
:101450008D858823B1F4EF81F885828D8150EF81ED
:10146000F885828FEF81F88580858823F1F08F8160
:10147000988508960E9444128130B9F40E94590759
:1014800014C0EF81F88589819A8197838683EF81E3
:10149000F8858189882349F08F81988541960E943B
:1014A0004412882311F00E9459070F900FBE81E06B
:1014B0008E875CC08B859C85009721F40F900FBEB2
:1014C0001E8654C08B81882331F4CE0104960E947D
:1014D000AC1281E08B830F900FBE0E9408100FB6F4
:1014E000F8940F92EF81F885858D8F3F19F4EF8185
:1014F000F885158EEF81F885868D8F3F19F4EF8181
:10150000F885168E0F900FBECE0104969E01255FC2
:101510003F4FB9010E94C512882309F58F81988534
:101520000E94810C8823A1F08F81988541962B859C
:101530003C85B9010E940E128F8198850E942D0C66
:101540000E941410882309F06DCF0E9459076ACFBA
:101550008F8198850E942D0C0E94141063CF8F817B
:1015600098850E942D0C0E9414101E868E852E9642
:101570000FB6F894DEBF0FBECDBFCF91DF910895B7
:10158000DF93CF93CDB7DEB728970FB6F894DEBFC1
:101590000FBECDBF9C838B837E836D8358874F8323
:1015A0001982EB81FC81828D882371F18B819C8172
:1015B0002D813E81B9010E94E50BEB81FC81828D7A
:1015C0008150EB81FC81828FEB81FC81858D8F3F87
:1015D00089F4EB81FC818085882399F08B819C8143
:1015E00008960E944412882361F0EF81F88581E01B
:1015F000808307C0EB81FC81858D8F5FEB81FC814F
:10160000858F81E08A8301C01A828A8128960FB66D
:10161000F894DEBF0FBECDBFCF91DF910895DF9369
:10162000CF9300D00F92CDB7DEB79B838A830FB6DE
:10163000F8940F92EA81FB81828D89830F900FBE0F
:1016400089810F900F900F90CF91DF910895DF93D4
:10165000CF9300D00F92CDB7DEB79B838A83EA8108
:10166000FB81828D898389810F900F900F90CF919C
:10167000DF910895DF93CF9300D0CDB7DEB79A8383
:101680008983E981FA81808191810E94390489816D
:101690009A810E9439040F900F90CF91DF910895A5
:1016A000DF93CF9300D000D00F92CDB7DEB79A83EF
:1016B00089837C836B834D83E981FA81848D8823C0
:1016C00009F474C08D81882399F5E981FA816481D8
:1016D0007581E981FA81848D482F50E02B813C810E
:1016E000CB01B9010E94B714E981FA8124813581C7
:1016F000E981FA81848D882F90E0820F931FE98120
:10170000FA8195838483E981FA8124813581E98195
:10171000FA81828193812817390708F447C0E9814B
:10172000FA8180819181E981FA81958384833EC029
:10173000E981FA8166817781E981FA81848D482F78
:1017400050E02B813C81CB01B9010E94B714E981A3
:10175000FA8126813781E981FA81848D882F90E092
:10176000909581959F4F820F931FE981FA8197830E
:101770008683E981FA8126813781E981FA81808136
:1017800091812817390790F4E981FA812281338108
:10179000E981FA81848D882F90E0909581959F4F03
:1017A000820F931FE981FA8197838683E981FA8109
:1017B000828D8F5FE981FA81828F0F900F900F9059
:1017C0000F900F90CF91DF910895DF93CF9300D0CA
:1017D00000D0CDB7DEB79A8389837C836B83E981A0
:1017E000FA8180819181009789F1E981FA812681CE
:1017F0003781E981FA81848D882F90E0820F931FD1
:10180000E981FA8197838683E981FA81268137818C
:10181000E981FA81828193812817390740F0E981B3
:10182000FA8180819181E981FA8197838683E981B8
:10183000FA8146815781E981FA81848D282F30E031
:101840008B819C81BA01A9010E94B7140F900F905F
:101850000F900F90CF91DF910895DF93CF9300D039
:10186000CDB7DEB79A8389830FB6F8940F9215C06F
:10187000E981FA8181898823A9F089819A81419639
:101880000E944412882311F00E942213E981FA81F8
:10189000868D8150E981FA81868FE981FA81868D72
:1018A000181634F3E981FA818FEF868F0F900FBEFF
:1018B0000FB6F8940F9215C0E981FA8180858823CC
:1018C000A9F089819A8108960E944412882311F018
:1018D0000E942213E981FA81858D8150E981FA8184
:1018E000858FE981FA81858D181634F3E981FA81B3
:1018F0008FEF858F0F900FBE0F900F90CF91DF91DC
:101900000895DF93CF9300D00F92CDB7DEB79B83BE
:101910008A830FB6F8940F92EA81FB81828D198237
:10192000882311F481E089830F900FBE89810F9085
:101930000F900F90CF91DF910895DF93CF9300D058
:101940000F92CDB7DEB79B838A83EA81FB81828DBC
:101950001982882311F481E0898389810F900F9087
:101960000F90CF91DF910895DF93CF9300D00F9226
:10197000CDB7DEB79B838A830FB6F8940F92EA81C6
:10198000FB81928DEA81FB81838D1982981711F476
:1019900081E089830F900FBE89810F900F900F9087
:1019A000CF91DF910895DF93CF9300D00F92CDB701
:1019B000DEB79B838A83EA81FB81928DEA81FB817A
:1019C000838D1982981711F481E0898389810F90A2
:1019D0000F900F90CF91DF910895AF92BF92CF9269
:1019E000DF92EF92FF920F931F93DF93CF93CDB7C8
:1019F000DEB764970FB6F894DEBF0FBECDBF9F83EE
:101A00008E83798768875B874A873D872C870E8717
:101A1000F88AEF86DA8AC98ABC8AAB8A8A859B856E
:101A200029893A89B9010E9451149C838B838B8147
:101A30009C81009709F499C0EB81FC812789308D46
:101A40008A859B850197820F931F9A8389838B8157
:101A50009C8128853985EB89FC89AA85BB85B901DC
:101A60004E859F018D010E94361389819A812E81B6
:101A70003F814C855D85B9010E949A05EB81FC810F
:101A8000918380838F859889009731F0EF85F8895D
:101A90008B819C81918380830FB6F8940F92809103
:101AA00017038F5F809317038091140390911503A0
:101AB000009769F48B819C819093150380931403A4
:101AC000809117038130A9F40E948D1312C0809178
:101AD0001C03882371F4E0911403F0911503968997
:101AE0008E85891730F08B819C81909315038093AC
:101AF0001403EB81FC81968980911A03891728F4DD
:101B0000EB81FC81868980931A03809121038F5F8A
:101B100080932103EB81FC81968980911B038917B7
:101B200028F4EB81FC81868980931B03EB81FC8187
:101B30008689282F30E0C901880F991F880F991FC7
:101B4000880F991F820F931FAC014E5D5C4F8B81F4
:101B50009C819C012E5F3F4FCA01B9010E949904EC
:101B600081E08D830F900FBE02C08FEF8D838D813A
:101B7000813071F480911C03882351F0E0911403AB
:101B8000F091150396898E85981710F40E945907D5
:101B90008D8164960FB6F894DEBF0FBECDBFCF9196
:101BA000DF911F910F91FF90EF90DF90CF90BF904A
:101BB000AF900895DF93CF9300D000D000D0CDB781
:101BC000DEB79C838B830FB6F8940F922091140399
:101BD000309115038B819C818217930711F41C822D
:101BE0001B828B819C81009739F480911403909122
:101BF00015039E838D8304C08B819C819E838D837E
:101C00008D819E819A83898389819A8102960E941F
:101C10005105E981FA8184899589009729F08981A4
:101C20009A810C960E94510589819A819C012E5FB0
:101C30003F4F8EE693E0B9010E949904809116030C
:101C40008F5F80931603809121038F5F8093210320
:101C50000F900FBE80911C03882331F08B819C81F3
:101C6000009711F40E94590726960FB6F894DEBF2C
:101C70000FBECDBFCF91DF910895DF93CF93CDB746
:101C8000DEB728970FB6F894DEBF0FBECDBF9E8398
:101C90008D8378876F8319820E940810ED81FE8101
:101CA000208131818F819885820F931F9C838B8344
:101CB000ED81FE812081318180911803909119037B
:101CC00082179307A8F4ED81FE81208131818B81F9
:101CD0009C818217930700F5209118033091190316
:101CE0008B819C8128173907B8F481E0898314C05F
:101CF000ED81FE81208131818B819C818217930748
:101D000048F020911803309119038B819C8128178A
:101D1000390710F481E08983ED81FE818B819C81FC
:101D2000918380838981882359F080911403909155
:101D3000150302960E9451058B819C810E94081414
:101D40000E9414108A838A81882311F40E94590703
:101D500028960FB6F894DEBF0FBECDBFCF91DF91AE
:101D60000895DF93CF9300D000D00F92CDB7DEB7A8
:101D70009D838C8319828C819D810097D1F00E9474
:101D8000081020911803309119038C819D81820FD6
:101D9000931F9B838A83809114039091150302966D
:101DA0000E9451058A819B810E9408140E94141090
:101DB00089838981882311F40E9459070F900F901D
:101DC0000F900F900F90CF91DF910895DF93CF93F5
:101DD000CDB7DEB727970FB6F894DEBF0FBECDBFE5
:101DE0009D838C830FB6F8940F928C819D81009710
:101DF00039F480911403909115039F838E8304C05E
:101E00008C819D819F838E838E819F819B838A831A
:101E1000EA81FB81868989830F900FBE898127968D
:101E20000FB6F894DEBF0FBECDBFCF91DF910895FE
:101E3000DF93CF93CDB7DEB729970FB6F894DEBF07
:101E40000FBECDBF9E838D836F8319828F818530B6
:101E500010F084E08F830FB6F8940F922091140352
:101E6000309115038D819E818217930711F41E8294
:101E70001D828D819E81009739F480911403909189
:101E800015039987888704C08D819E8199878887EB
:101E9000888599859C838B83EB81FC8186898A83E5
:101EA0009A818F81981709F465C09F818A8189176B
:101EB00038F48D819E81009749F081E0898306C0C6
:101EC0008D819E81009711F481E08983EB81FC81F3
:101ED0008F81868B8F81282F30E085E090E0821BF8
:101EE000930BEB81FC8195878487EB81FC81428594
:101EF00053858A81282F30E0C901880F991F880FE8
:101F0000991F880F991F820F931F8E5D9C4F481752
:101F1000590759F58B819C8102960E945105EB81EE
:101F2000FC81968980911B03891728F4EB81FC8141
:101F3000868980931B03EB81FC818689282F30E002
:101F4000C901880F991F880F991F880F991F820F49
:101F5000931FAC014E5D5C4F8B819C819C012E5F79
:101F60003F4FCA01B9010E9499048981813011F45F
:101F70000E9459070F900FBE29960FB6F894DEBF46
:101F80000FBECDBFCF91DF910895AF92BF92CF9298
:101F9000DF92EF92FF920F93DF93CF930F92CDB723
:101FA000DEB723E730E08CE293E1B90145E550E08C
:101FB00020E030E000E0EE24FF24CC24DD24AA243D
:101FC000BB240E94ED0C89838981813051F4F894FF
:101FD00081E080931C0310921903109218030E9451
:101FE0001D070F90CF91DF910F91FF90EF90DF9041
:101FF000CF90BF90AF900895DF93CF93CDB7DEB76A
:10200000F89410921C030E945207CF91DF9108951B
:10201000DF93CF93CDB7DEB780911D038F5F8093A1
:102020001D03CF91DF910895DF93CF9300D000D0AF
:10203000CDB7DEB71A820FB6F8940F9280911D03C8
:10204000815080931D0380911D03882309F06CC08B
:1020500080911703882309F467C0198241C0E09179
:102060006A03F0916B03868197819C838B838B81BC
:102070009C810C960E9451058B819C8102960E9446
:102080005105EB81FC81968980911B03891728F407
:10209000EB81FC81868980931B03EB81FC8186891F
:1020A000282F30E0C901880F991F880F991F880FCA
:1020B000991F820F931F8E5D9C4F2B813C812E5F59
:1020C0003F4FB9010E949904EB81FC819689E09110
:1020D0001403F09115038689981710F081E0898325
:1020E00080916503882309F0BACF80911E0388236D
:1020F00071F007C00E94D31080911E03815080931D
:102100001E0380911E038823A9F781E089838981BA
:10211000813021F080911F03813031F481E08A8386
:1021200010921F030E9459070F900FBE8A810F90D3
:102130000F900F900F90CF91DF910895DF93CF9381
:1021400000D0CDB7DEB70FB6F8940F928091180388
:10215000909119039A8389830F900FBE89819A8188
:102160000F900F90CF91DF910895DF93CF9300D020
:102170000F92CDB7DEB719828091180390911903A1
:102180009B838A838A819B810F900F900F90CF91C0
:10219000DF910895DF93CF93CDB7DEB7809117031A
:1021A000CF91DF910895DF93CF9300D000D000D07E
:1021B000CDB7DEB780911D03882309F0BBC08091A5
:1021C00018039091190301969093190380931803B3
:1021D00080911803909119030097D1F580916103C4
:1021E000909162039C838B8380916303909164033D
:1021F00090936203809361038B819C81909364032D
:1022000080936303809120038F5F80932003E0918C
:102210006103F09162038081882339F48FEF9FEF8F
:10222000909379008093780013C0E0916103F0915E
:1022300062030580F681E02D868197819E838D83E0
:10224000ED81FE8182819381909379008093780063
:1022500020911803309119038091780090917900B2
:102260002817390708F46BC0E0916103F09162030D
:102270008081882339F48FEF9FEF909379008093CA
:1022800078005DC0E0916103F09162030580F68102
:10229000E02D868197819E838D83ED81FE818281F1
:1022A00093819A838983209118033091190389813E
:1022B0009A812817390738F489819A819093790097
:1022C000809378003CC08D819E8102960E945105CA
:1022D000ED81FE8184899589009729F08D819E8109
:1022E0000C960E945105ED81FE81968980911B0319
:1022F000891728F4ED81FE81868980931B03ED8187
:10230000FE818689282F30E0C901880F991F880F28
:10231000991F880F991F820F931FAC014E5D5C4F70
:102320008D819E819C012E5F3F4FCA01B9010E94A1
:1023300099049ACF80911E038F5F80931E03269687
:102340000FB6F894DEBF0FBECDBFCF91DF910895D9
:10235000DF93CF9300D0CDB7DEB780911D038823E4
:1023600049F081E080931F0354C080911B0381508A
:1023700080931B0380911B03282F30E0C901880F35
:10238000991F880F991F880F991F820F931FFC01B7
:10239000EE5DFC4F8081882341F380911B03282F41
:1023A00030E0C901880F991F880F991F880F991F66
:1023B000820F931F8E5D9C4F9A838983E981FA81F6
:1023C0000180F281E02D82819381E981FA819283FB
:1023D0008183E981FA812181328189819A81039601
:1023E0002817390759F4E981FA810180F281E02D3B
:1023F00082819381E981FA8192838183E981FA81E3
:102400000180F281E02D868197819093150380935E
:1024100014030F900F90CF91DF910895DF93CF9326
:1024200000D000D000D0CDB7DEB79C838B837E83F5
:102430006D834B815C8180911403909115039C0105
:10244000245F3F4FCA01B9010E94E5048091140343
:102450009091150302960E94510520911803309126
:1024600019038D819E81820F931F9A8389838981AD
:102470009A810E94081426960FB6F894DEBF0FBE0C
:10248000CDBFCF91DF910895DF93CF9300D000D0DF
:102490000F92CDB7DEB79D838C83EC81FD810580E3
:1024A000F681E02D868197819B838A838A819B8137
:1024B0000C960E94510580911D03882361F58A8145
:1024C0009B8102960E945105EA81FB819689809149
:1024D0001B03891728F4EA81FB81868980931B03FB
:1024E000EA81FB818689282F30E0C901880F991F76
:1024F000880F991F880F991F820F931FAC014E5DA3
:102500005C4F8A819B819C012E5F3F4FCA01B901BC
:102510000E9499040AC08A819B819C01245F3F4FDD
:1025200085E693E0B9010E949904EA81FB819689CE
:10253000E0911403F09115038689981718F081E053
:10254000898301C0198289810F900F900F900F909D
:102550000F90CF91DF910895DF93CF9300D0CDB747
:10256000DEB79A83898380912003E981FA81808391
:102570008091180390911903E981FA8192838183F4
:102580000F900F90CF91DF910895DF93CF9300D0FC
:1025900000D00F92CDB7DEB79B838A837D836C8397
:1025A0000FB6F8940F92EA81FB819081809120030D
:1025B000981771F0EA81FB812181328180911803A3
:1025C000909119038217930718F081E089832FC037
:1025D0002091180330911903EA81FB818181928156
:1025E000281B390BEC81FD818081918128173907E7
:1025F000E0F4EC81FD8140815181EA81FB81218100
:1026000032818091180390911903B901681B790BED
:10261000CB01840F951FEC81FD81918380838A819A
:102620009B810E94AC12198202C081E089830F90C5
:102630000FBE89810F900F900F900F900F90CF9148
:10264000DF910895DF93CF93CDB7DEB781E080931C
:102650001F03CF91DF910895DF93CF9300D0CDB7C3
:10266000DEB79A8389830E94CA13FDCF0F931F930D
:10267000DF93CF93CDB7DEB729970FB6F894DEBFBF
:102680000FBECDBF9A8389837C836B834D833F8349
:102690002E831987088789819A8149962B813C81ED
:1026A000B90148E050E00E94C714E981FA8110A204
:1026B0008D81853010F084E08D83E981FA818D81F0
:1026C000868B89819A8102960E94890489819A81E8
:1026D0000C960E948904E981FA8189819A81918707
:1026E00080878D81282F30E085E090E0821B930B5E
:1026F000E981FA8195878487E981FA8189819A81C4
:10270000938B828B29960FB6F894DEBF0FBECDBF98
:10271000CF91DF911F910F910895DF93CF930F9287
:10272000CDB7DEB7198213C08981282F30E0C901E7
:10273000880F991F880F991F880F991F820F931F69
:102740008E5D9C4F0E945F0489818F5F89838981A0
:10275000853050F38FE493E00E945F0488E593E0B6
:102760000E945F0485E693E00E945F048EE693E09A
:102770000E945F048FE493E090936203809361036F
:1027800088E593E090936403809363030F90CF9167
:10279000DF910895DF93CF9300D00F92CDB7DEB7CE
:1027A00080911603882371F10E94081080916E03B6
:1027B0001B82882311F481E08B830E9414108B818B
:1027C000882301F50FB6F8940F92E0917303F0910E
:1027D0007403868197819A83898389819A8102967D
:1027E0000E945105809117038150809317038091B7
:1027F00016038150809316030F900FBE89819A8132
:102800000E94A1140F900F900F90CF91DF91089527
:10281000DF93CF9300D0CDB7DEB79A838983E09161
:102820001403F091150389819A8193838283209107
:1028300018033091190389819A818217930770F4E4
:1028400080916303909164032091140330911503E8
:102850002E5F3F4FB9010E94E5041EC04091610305
:102860005091620380911403909115039C012E5F97
:102870003F4FCA01B9010E94E504209178003091D0
:10288000790089819A818217930730F489819A812E
:1028900090937900809378000F900F90CF91DF9103
:1028A0000895DF93CF93CDB7DEB728970FB6F8948E
:1028B000DEBF0FBECDBF9C838B837E836D8381E2A1
:1028C00090E00E94F3039A83898389819A8100971B
:1028D00069F18D819E81009739F48B819C810E94E2
:1028E000F30398878F8304C08D819E8198878F839F
:1028F000E981FA818F819885908F878BE981FA81B0
:102900008789908D009739F489819A810E943904D2
:102910001A8219820BC0E981FA818789908D2B81F7
:102920003C8165EA70E0A9010E94C01489819A8106
:1029300028960FB6F894DEBF0FBECDBFCF91DF91C2
:102940000895DF93CF9300D0CDB7DEB79A83898304
:10295000E981FA818789908D0E94390489819A8161
:102960000E9439040F900F90CF91DF910895FB01E1
:10297000DC0102C001900D9241505040D8F70895FB
:10298000DC0101C06D9341505040E0F70895FB0118
:10299000DC014150504048F001900D920020C9F7F1
:1029A00001C01D9241505040E0F70895F894FFCFC8
:1029B0005075736820427574746F6E2032004C65D8
:0A29C00064200049444C4500FFFF6D
:00000001FF
