:100000000C942A000C9447000C9447000C94470071
:100010000C9447000C9447000C9447000C94D608AD
:100020000C9447000C9447000C9447000C94470034
:100030000C9447000C9447000C9447000C94470024
:100040000C9447000C9447000C9447000C94470014
:100050000C94470011241FBECFE5D8E0DEBFCDBF12
:1000600010E0A0E6B0E0EAE8FAE202C005900D92E6
:10007000A038B107D9F713E0A0E8B0E001C01D92A5
:10008000AF37B107E1F70E9449000C9443150C9477
:100090000000AF92BF92CF92DF92EF92FF920F9348
:1000A000DF93CF93CDB7DEB720E630E088EC90E069
:1000B000E2E8F0E0B90145E550E020E030E003E09F
:1000C0007F01CC24DD24AA24BB240E945A0D26E6FD
:1000D00030E08CE191E0E6E8F0E0B90145E550E080
:1000E00020E030E002E07F01CC24DD24AA24BB2400
:1000F0000E945A0D24E730E083E691E0E4E8F0E066
:10010000B90145E550E020E030E001E07F01CC247A
:10011000DD24AA24BB240E945A0D0E94B60081E06F
:1001200060E00E94D90890938100809380008091C4
:10013000800090918100009759F08091800090910B
:10014000810060E070E040E050E020E00E94820921
:100150000E94321080E090E0CF91DF910F91FF90EC
:10016000EF90DF90CF90BF90AF900895DF93CF9343
:10017000CDB7DEB7E7E3F0E08FEF8083E4E3F0E0B4
:100180001082E5E3F0E08FEF8083CF91DF91089557
:10019000DF93CF9300D000D000D0CDB7DEB79E83E1
:1001A0008D8388EE93E09A8389830E940B119C8350
:1001B0008B8384E190E00E941E0F0CC084E690E0E7
:1001C0000E941E0FA8E3B0E0E8E3F0E0908182E037
:1001D00089278C93809180009091810060E070E08D
:1001E00044E650E020E00E946D0A882339F38091B4
:1001F00082009091830063E00E94850F80E197E286
:100200000E941E0F809180009091810060E070E05C
:1002100040E050E020E00E948209809182009091AD
:10022000830063E00E94850FCE01039629813A8105
:10023000B9010E94AA0ECECFDF93CF9300D000D099
:1002400000D0CDB7DEB79E838D8384E690E09A839D
:1002500089830E940B119C838B83809180009091F5
:10026000810060E070E044E650E020E00E946D0A0A
:10027000882399F38CE191E063E00E94850FA8E365
:10028000B0E0E8E3F0E0908184E089278C9388EE89
:1002900093E00E941E0F809180009091810060E0A9
:1002A00070E040E050E020E00E9482098CE191E0A3
:1002B00062E00E94850FCE01039629813A81B9013F
:1002C0000E94AA0ECACFDF93CF9300D000D000D0F7
:1002D000CDB7DEB79E838D8384E690E09A838983D1
:1002E0000E940B119C838B838EE190E00E941E0F75
:1002F000A8E3B0E0E8E3F0E0908181E089278C9307
:10030000CE01039629813A81B9010E94AA0EF0CF4D
:10031000DF93CF93CDB7DEB727970FB6F894DEBF44
:100320000FBECDBF9D838C836E834F838AE190E0A7
:100330000E9460049A83898389819A81009709F4D5
:100340006FC08091880090918900009741F4898165
:100350009A8190938900809388000E94EF038E8198
:10036000823010F081E08E83E981FA81118E108E47
:10037000E981FA818E81868BE981FA818F81878B71
:10038000E981FA818C819D819183808389819A8121
:1003900002960E94F60489819A810C960E94F604C6
:1003A000E981FA8189819A8191878087E981FA813F
:1003B00089819A81938B828B8E81282F30E085E012
:1003C00090E0821B930BE981FA8195878487E9810C
:1003D000FA81968980918A00891728F4E981FA8147
:1003E000868980938A00E981FA818689282F30E006
:1003F000C901880F991F880F991F880F991F820FB5
:10040000931FAC014F565F4F89819A819C012E5FEB
:100410003F4FCA01B9010E94060581E08B8302C0EB
:100420008FEF8B838B8127960FB6F894DEBF0FBEBC
:10043000CDBFCF91DF910895DF93CF9300D000D04F
:1004400000D0CDB7DEB79C838B837E836D832091F4
:100450008B0030918C008B819C81820F931F9A833B
:100460008983809188009091890002960E94BE0540
:10047000E0918800F091890089819A819383828339
:1004800020918B0030918C0089819A81821793078B
:1004900070F48091B7009091B8002091880030915D
:1004A00089002E5F3F4FB9010E9452050DC0809117
:1004B000B5009091B60020918800309189002E5FA0
:1004C0003F4FB9010E9452058D819E81009761F0D6
:1004D00080918800909189009C01245F3F4F8D811D
:1004E0009E81B9010E94520526960FB6F894DEBF90
:1004F0000FBECDBFCF91DF910895DF93CF9300D092
:10050000CDB7DEB73AC0F894E091BE00F091BF00DD
:10051000868197819A83898389819A810C960E942A
:10052000BE05789489819A8102960E94BE05E98170
:10053000FA81968980918A00891728F4E981FA81E5
:10054000868980938A00E981FA818689282F30E0A4
:10055000C901880F991F880F991F880F991F820F53
:10056000931FAC014F565F4F89819A819C012E5F8A
:100570003F4FCA01B9010E9406058091B900882346
:1005800009F0C1CF0F900F90CF91DF910895DF93C5
:10059000CF9300D000D0CDB7DEB70E940B112091D1
:1005A0008D0030918E00821B930B9093900080936E
:1005B0008F0085C080918B0090918C000196909364
:1005C0008C0080938B0080918F0090919000019718
:1005D0009093900080938F0080918B0090918C007D
:1005E000009709F064C08091B5009091B6009A839D
:1005F00089838091B7009091B8009093B600809362
:10060000B50089819A819093B8008093B7004FC05C
:10061000E091B500F091B6000580F681E02D86816D
:1006200097819C838B83EB81FC8122813381809134
:100630008B0090918C008217930708F440C0F894C7
:100640008B819C8102960E94BE05EB81FC8184898E
:100650009589009729F08B819C810C960E94BE059C
:100660007894EB81FC81968980918A00891728F41F
:10067000EB81FC81868980938A00EB81FC818689ED
:10068000282F30E0C901880F991F880F991F880F04
:10069000991F820F931FAC014F565F4F8B819C8136
:1006A0009C012E5F3F4FCA01B9010E940605E091EF
:1006B000B500F091B6008081882309F0A9CF809120
:1006C0008F0090919000009709F074CF80918B007B
:1006D00090918C0090938E0080938D000F900F90DE
:1006E0000F900F90CF91DF910895DF93CF9300D0BB
:1006F000CDB7DEB70E947D020E94C7020AC080917A
:100700008A00882309F466C080918A008150809312
:100710008A0080918A00282F30E0C901880F991F34
:10072000880F991F880F991F820F931FFC01EF56A6
:10073000FF4F8081882319F380918A00282F30E0B1
:10074000C901880F991F880F991F880F991F820F61
:10075000931F8F569F4F9A838983E981FA81018085
:10076000F281E02D82819381E981FA8192838183F4
:10077000E981FA812181328189819A810396281742
:10078000390759F4E981FA810180F281E02D8281F3
:100790009381E981FA8192838183E981FA810180E1
:1007A000F281E02D86819781909389008093880063
:1007B000E0918800F091890040815181809188000A
:1007C00090918900E0918800F09189002789622F3B
:1007D000FA0109950F900F90CF91DF910895DF9363
:1007E000CF930F92CDB7DEB7198213C08981282F1E
:1007F00030E0C901880F991F880F991F880F991F32
:10080000820F931F8F569F4F0E94CC0489818F5F68
:1008100089838981823050F383EA90E00E94CC047E
:100820008CEA90E00E94CC0489EB90E00E94CC041A
:1008300083EA90E09093B6008093B5008CEA90E054
:100840009093B8008093B7000F90CF91DF910895F7
:10085000DF93CF9300D000D00F92CDB7DEB79D834A
:100860008C83EC81FD810580F681E02D8681978166
:100870009B838A838A819B810C960E94BE058A8114
:100880009B819C01245F3F4F89EB90E0B9010E945E
:100890000605EA81FB819689E0918800F091890044
:1008A0008689981718F081E0898301C019828981AF
:1008B0000F900F900F900F900F90CF91DF910895B0
:1008C000DF93CF9300D000D0CDB7DEB79C838B836E
:1008D0001A8219820E9475108091C2009091C30003
:1008E0002B813C81820F931F22E08835920718F5F7
:1008F0002091C2003091C3008B819C81280F391F49
:100900008091C2009091C30082179307A0F4809158
:10091000C2009091C3008C539F4F9A83898320918A
:10092000C2003091C3008B819C81820F931F9093F2
:10093000C3008093C2000E94811089819A810F9028
:100940000F900F900F90CF91DF910895DF93CF9389
:1009500000D0CDB7DEB79A8389830F900F90CF91E7
:10096000DF910895DF93CF93CDB7DEB71092C30028
:100970001092C200CF91DF910895DF93CF93CDB74E
:10098000DEB72091C2003091C30088E592E0821B5F
:10099000930BCF91DF910895DF93CF9300D0CDB724
:1009A000DEB79A83898389819A810396E981FA81E6
:1009B00092838183E981FA818FEF9FEF9483838310
:1009C00089819A810396E981FA8196838583898159
:1009D0009A810396E981FA8190878783E981FA8178
:1009E00010820F900F90CF91DF910895DF93CF93F6
:1009F00000D0CDB7DEB79A838983E981FA81118669
:100A000010860F900F90CF91DF910895DF93CF93D1
:100A100000D000D000D0CDB7DEB79C838B837E831F
:100A20006D83EB81FC81818192819A838983E98145
:100A3000FA8182819381ED81FE8193838283EB81B0
:100A4000FC8181819281ED81FE8195838483E9819E
:100A5000FA810280F381E02D8D819E8195838483CC
:100A60008D819E81E981FA81938382838D819E812C
:100A7000EB81FC8192838183ED81FE818B819C815E
:100A800091878087EB81FC8180818F5FEB81FC8186
:100A9000808326960FB6F894DEBF0FBECDBFCF91F0
:100AA000DF910895DF93CF93CDB7DEB728970FB6C8
:100AB000F894DEBF0FBECDBF9E838D8378876F8392
:100AC000EF81F885808191819A83898389819A81D8
:100AD0002FEF8F3F920739F4ED81FE81878190855A
:100AE0009C838B8318C08D819E8103969C838B830E
:100AF00006C0EB81FC81828193819C838B83EB8197
:100B0000FC810280F381E02D2081318189819A81ED
:100B10008217930770F7EB81FC8182819381EF81CB
:100B2000F88593838283EF81F8850280F381E02D3D
:100B30008F81988595838483EF81F8858B819C8153
:100B4000958384838F819885EB81FC819383828355
:100B5000EF81F8858D819E8191878087ED81FE816F
:100B600080818F5FED81FE81808328960FB6F89497
:100B7000DEBF0FBECDBFCF91DF910895DF93CF933E
:100B800000D000D0CDB7DEB79C838B83EB81FC8196
:100B9000A281B381EB81FC818481958115969C9320
:100BA0008E931497EB81FC81A481B581EB81FC814C
:100BB0008281938113969C938E931297EB81FC8193
:100BC000808591859A838983E981FA8121813281A7
:100BD0008B819C812817390741F4EB81FC8184814A
:100BE0009581E981FA8192838183EB81FC81118671
:100BF0001086E981FA8180818150E981FA818083C0
:100C00000F900F900F900F90CF91DF910895DF9389
:100C1000CF93CDB7DEB728970FB6F894DEBF0FBEDF
:100C2000CDBF9C838B837E836D8358874F83EB81FD
:100C3000FC8181E180838B819C8101979C838B83E4
:100C4000EB81FC8182E280838B819C8101979C8374
:100C50008B83EB81FC8183E380838B819C81019773
:100C60009C838B838D819E819A8389838981EB818B
:100C7000FC8180838B819C8101979C838B838981FC
:100C80009A81892F99279A8389838981EB81FC81B5
:100C900080838B819C8101979C838B83EB81FC817A
:100CA00010828B819C8101979C838B83EB81FC81DB
:100CB00080E880838B819C8101979C838B83EB816F
:100CC000FC8110828B819C8101979C838B83EB81BB
:100CD000FC8182E080838B819C8101979C838B8344
:100CE000EB81FC8183E080838B819C8101979C83D5
:100CF0008B83EB81FC8184E080838B819C810197D5
:100D00009C838B83EB81FC8185E080838B819C813C
:100D100001979C838B83EB81FC8186E080838B81B0
:100D20009C8101979C838B83EB81FC8187E080838E
:100D30008B819C8101979C838B83EB81FC8188E074
:100D400080838B819C8101979C838B83EB81FC81C9
:100D500089E080838B819C8101979C838B83EB81CD
:100D6000FC8180E180838B819C8101979C838B83B4
:100D7000EB81FC8181E180838B819C8101979C8345
:100D80008B83EB81FC8182E180838B819C81019745
:100D90009C838B83EB81FC8183E180838B819C81AD
:100DA00001979C838B83EB81FC8184E180838B8121
:100DB0009C8101979C838B83EB81FC8185E18083FF
:100DC0008B819C8101979C838B83EB81FC8186E1E5
:100DD00080838B819C8101979C838B83EB81FC8139
:100DE00087E180838B819C8101979C838B83EB813E
:100DF000FC8188E180838B819C8101979C838B831C
:100E0000EB81FC8189E180838B819C8101979C83AC
:100E10008B83EB81FC8180E280838B819C810197B5
:100E20009C838B83EB81FC8181E280838B819C811D
:100E300001979C838B83EB81FC8182E280838B8191
:100E40009C8101979C838B83EB81FC8183E280836F
:100E50008B819C8101979C838B838F8198859A835A
:100E600089838981EB81FC8180838B819C810197BF
:100E70009C838B8389819A81892F99279A8389837F
:100E80008981EB81FC8180838B819C8101979C838C
:100E90008B83EB81FC8186E280838B819C8101972F
:100EA0009C838B83EB81FC8187E280838B819C8197
:100EB00001979C838B83EB81FC8188E280838B810B
:100EC0009C8101979C838B83EB81FC8189E28083E9
:100ED0008B819C8101979C838B83EB81FC8180E3D8
:100EE00080838B819C8101979C838B83EB81FC8128
:100EF00081E380838B819C8101979C838B838B8191
:100F00009C8128960FB6F894DEBF0FBECDBFCF915F
:100F1000DF910895DF93CF93CDB7DEB70E947A08B3
:100F2000A0911C03B0911D03CD91CDBFDD91DEBF1B
:100F3000FF91EF91DF91CF91BF91AF919F918F91F1
:100F40007F916F915F914F913F912F911F910F91E1
:100F5000FF90EF90DF90CF90BF90AF909F908F90D9
:100F60007F906F905F904F903F902F901F900F90C9
:100F70000FBE0F90089581E0CF91DF910895DF9328
:100F8000CF93CDB7DEB7CF91DF9108950F920FB613
:100F9000F8940F921F9211242F923F924F925F92DA
:100FA0006F927F928F929F92AF92BF92CF92DF9279
:100FB000EF92FF920F931F932F933F934F935F9363
:100FC0006F937F938F939F93AF93BF93CF93DF9351
:100FD000EF93FF93A0911C03B0911D030DB60D92EA
:100FE0000EB60D920E941512A0911C03B0911D0324
:100FF000CD91CDBFDD91DEBFFF91EF91DF91CF911C
:10100000BF91AF919F918F917F916F915F914F9120
:101010003F912F911F910F91FF90EF90DF90CF9014
:10102000BF90AF909F908F907F906F905F904F9008
:101030003F902F901F900F900FBE0F9008950F922A
:101040000FB6F8940F921F9211242F923F924F9255
:101050005F926F927F928F929F92AF92BF92CF9248
:10106000DF92EF92FF920F931F932F933F934F9333
:101070005F936F937F938F939F93AF93BF93CF9320
:10108000DF93EF93FF93A0911C03B0911D030DB666
:101090000D920EB60D920E9440110E941512A09161
:1010A0001C03B0911D03CD91CDBFDD91DEBFFF913B
:1010B000EF91DF91CF91BF91AF919F918F917F91F0
:1010C0006F915F914F913F912F911F910F91FF90E1
:1010D000EF90DF90CF90BF90AF909F908F907F90D8
:1010E0006F905F904F903F902F901F900F900FBE8A
:1010F0000F900895DF93CF9300D000D000D0CDB7EC
:10110000DEB780E49FE1A0E0B0E08B839C83AD83F9
:10111000BE838B819C81AD81BE81689415F8B695A4
:10112000A795979587951694D1F78B839C83AD836C
:10113000BE838B819C81AD81BE810197A109B109DC
:101140008B839C83AD83BE838B8189838B819C81C0
:10115000AD81BE81892F9A2FAB2FBB278B839C83B8
:10116000AD83BE838B818A83EBE4F0E08A81808348
:10117000EAE4F0E0898180838BE08983EEE4F0E0AB
:1011800089818083E9E5F0E08081898389818061BC
:101190008983E9E5F0E08981808326960FB6F8948B
:1011A000DEBF0FBECDBFCF91DF9108950E941F0813
:1011B0001895DF93CF93CDB7DEB728970FB6F89485
:1011C000DEBF0FBECDBF8F8368871A8219828F81E1
:1011D000882309F48CC08FE190E00E9460049E8314
:1011E0008D838D819E81009709F481C08F81282F86
:1011F00030E08885882F90E0AC01249FC001259FB6
:10120000900D349F900D112401969C838B838B81CC
:101210009C810E946004ED81FE8191838083ED8139
:10122000FE8180819181009709F45DC0ED81FE818E
:10123000408151818F81282F30E08885882F90E070
:10124000BC01269FC001279F900D369F900D112451
:10125000840F951FED81FE8193838283ED81FE8152
:10126000128EED81FE8180819181ED81FE819583D9
:101270008483ED81FE81408151818F81882F90E0B0
:101280009C01215030408885882F90E0BC01269F2A
:10129000C001279F900D369F900D1124840F951F3C
:1012A000ED81FE8197838683ED81FE818F81838F1F
:1012B000ED81FE818885848FED81FE818FEF858FA2
:1012C000ED81FE818FEF868F8D819E8108960E9431
:1012D000CC048D819E8141960E94CC048D819E819B
:1012E0009A83898304C08D819E810E94A60489818E
:1012F0009A8128960FB6F894DEBF0FBECDBFCF916E
:10130000DF910895DF93CF93CDB7DEB72C970FB65B
:10131000F894DEBF0FBECDBF9E838D8378876F8329
:101320005A8749872B8719820FB6F8940F92ED815F
:10133000FE81928DED81FE81838D9817D8F48D8189
:101340009E812F813885B9014B850E94BD0BED81AF
:10135000FE818189882349F08D819E8141960E947A
:10136000B112813011F40E94C6070F900FBE81E0C8
:101370008C875CC089859A85009721F40F900FBEF9
:101380001C8654C08981882331F4CE0102960E94C4
:10139000191381E089830F900FBE0E9475100FB65C
:1013A000F8940F92ED81FE81858D8F3F19F4ED81C8
:1013B000FE81158EED81FE81868D8F3F19F4ED81C2
:1013C000FE81168E0F900FBECE0102969E01275F02
:1013D0003F4FB9010E943213882309F58D819E8108
:1013E0000E94210D8823A1F08D819E810896298578
:1013F0003A85B9010E947B128D819E810E949A0CD0
:101400000E948110882309F08FCF0E94C6078CCFDD
:101410008D819E810E949A0C0E94811085CF8D81C2
:101420009E810E949A0C0E9481101C868C852C96AD
:101430000FB6F894DEBF0FBECDBFCF91DF910895F8
:10144000DF93CF93CDB7DEB729970FB6F894DEBF01
:101450000FBECDBF9C838B837E836D8358874F8364
:1014600029871982EB81FC81928DEB81FC81838D30
:10147000981740F58B819C812D813E81B90149856A
:101480000E94BD0BEB81FC81868D8F3F89F4EB813F
:10149000FC818189882399F08B819C8141960E94EF
:1014A000B112882361F0EF81F88581E0808307C065
:1014B000EB81FC81868D8F5FEB81FC81868F81E0E3
:1014C0008A8301C01A828A8129960FB6F894DEBFFA
:1014D0000FBECDBFCF91DF910895DF93CF93CDB7EE
:1014E000DEB72E970FB6F894DEBF0FBECDBF98873C
:1014F0008F837A8769875C874B872D871B820FB61E
:10150000F8940F92EF81F885828D882309F43FC00B
:10151000EF81F885868197819A8389838F81988569
:1015200029853A85B9010E94520C8D858823B1F432
:10153000EF81F885828D8150EF81F885828FEF8170
:10154000F88580858823F1F08F81988508960E9420
:10155000B1128130B9F40E94C60714C0EF81F8853A
:1015600089819A8197838683EF81F8858189882391
:1015700049F08F81988541960E94B112882311F01D
:101580000E94C6070F900FBE81E08E875CC08B85DE
:101590009C85009721F40F900FBE1E8654C08B814E
:1015A000882331F4CE0104960E94191381E08B83C5
:1015B0000F900FBE0E9475100FB6F8940F92EF8136
:1015C000F885858D8F3F19F4EF81F885158EEF81B1
:1015D000F885868D8F3F19F4EF81F885168E0F9070
:1015E0000FBECE0104969E01255F3F4FB9010E94B8
:1015F0003213882309F58F8198850E94EE0C882389
:10160000A1F08F81988541962B853C85B9010E9478
:101610007B128F8198850E949A0C0E9481108823EA
:1016200009F06DCF0E94C6076ACF8F8198850E940E
:101630009A0C0E94811063CF8F8198850E949A0C2A
:101640000E9481101E868E852E960FB6F894DEBFFE
:101650000FBECDBFCF91DF910895DF93CF93CDB76C
:10166000DEB728970FB6F894DEBF0FBECDBF9C83C0
:101670008B837E836D8358874F831982EB81FC8136
:10168000828D882371F18B819C812D813E81B901EE
:101690000E94520CEB81FC81828D8150EB81FC8198
:1016A000828FEB81FC81858D8F3F89F4EB81FC81FA
:1016B0008085882399F08B819C8108960E94B112C5
:1016C000882361F0EF81F88581E0808307C0EB819A
:1016D000FC81858D8F5FEB81FC81858F81E08A8322
:1016E00001C01A828A8128960FB6F894DEBF0FBE19
:1016F000CDBFCF91DF910895DF93CF9300D00F92AC
:10170000CDB7DEB79B838A830FB6F8940F92EA8138
:10171000FB81828D89830F900FBE89810F900F907E
:101720000F90CF91DF910895DF93CF9300D00F9268
:10173000CDB7DEB79B838A83EA81FB81828D898363
:1017400089810F900F900F90CF91DF910895DF93D3
:10175000CF9300D0CDB7DEB79A838983E981FA8130
:10176000808191810E94A60489819A810E94A604A9
:101770000F900F90CF91DF910895DF93CF9300D01A
:1017800000D00F92CDB7DEB79A8389837C836B83B9
:101790004D83E981FA81848D882309F474C08D8199
:1017A000882399F5E981FA8164817581E981FA815B
:1017B000848D482F50E02B813C81CB01B9010E94E0
:1017C0002415E981FA8124813581E981FA81848DAA
:1017D000882F90E0820F931FE981FA81958384839B
:1017E000E981FA8124813581E981FA8182819381BD
:1017F0002817390708F447C0E981FA81808191816F
:10180000E981FA81958384833EC0E981FA8166810A
:101810007781E981FA81848D482F50E02B813C81CA
:10182000CB01B9010E942415E981FA812681378113
:10183000E981FA81848D882F90E0909581959F4F62
:10184000820F931FE981FA8197838683E981FA8168
:1018500026813781E981FA818081918128173907B2
:1018600090F4E981FA8122813381E981FA81848DC2
:10187000882F90E0909581959F4F820F931FE9816B
:10188000FA8197838683E981FA81828D8F5FE9816E
:10189000FA81828F0F900F900F900F900F90CF9141
:1018A000DF910895DF93CF9300D000D0CDB7DEB79E
:1018B0009A8389837C836B83E981FA81808191811A
:1018C000009789F1E981FA8126813781E981FA81DE
:1018D000848D882F90E0820F931FE981FA8197838E
:1018E0008683E981FA8126813781E981FA818281C3
:1018F00093812817390740F0E981FA81808191812D
:10190000E981FA8197838683E981FA81468157814B
:10191000E981FA81848D282F30E08B819C81BA0186
:10192000A9010E9424150F900F900F900F90CF9156
:10193000DF910895DF93CF9300D0CDB7DEB79A83C0
:1019400089830FB6F8940F9215C0E981FA818189D5
:101950008823A9F089819A8141960E94B112882337
:1019600011F00E948F13E981FA81868D8150E981FF
:10197000FA81868FE981FA81868D181634F3E98120
:10198000FA818FEF868F0F900FBE0FB6F8940F92EB
:1019900015C0E981FA8180858823A9F089819A811F
:1019A00008960E94B112882311F00E948F13E981DA
:1019B000FA81858D8150E981FA81858FE981FA81EB
:1019C000858D181634F3E981FA818FEF858F0F909A
:1019D0000FBE0F900F90CF91DF910895DF93CF93BB
:1019E00000D00F92CDB7DEB79B838A830FB6F894F1
:1019F0000F92EA81FB81828D1982882311F481E0A4
:101A000089830F900FBE89810F900F900F90CF9117
:101A1000DF910895DF93CF9300D00F92CDB7DEB75B
:101A20009B838A83EA81FB81828D1982882311F44A
:101A300081E0898389810F900F900F90CF91DF9182
:101A40000895DF93CF9300D00F92CDB7DEB79B837D
:101A50008A830FB6F8940F92EA81FB81928DEA8116
:101A6000FB81838D1982981711F481E089830F908F
:101A70000FBE89810F900F900F90CF91DF91089545
:101A8000DF93CF9300D00F92CDB7DEB79B838A83CD
:101A9000EA81FB81928DEA81FB81838D19829817FF
:101AA00011F481E0898389810F900F900F90CF917D
:101AB000DF910895AF92BF92CF92DF92EF92FF92A3
:101AC0000F931F93DF93CF93CDB7DEB764970FB615
:101AD000F894DEBF0FBECDBF9F838E837987688762
:101AE0005B874A873D872C870E87F88AEF86DA8ADC
:101AF000C98ABC8AAB8A8A859B8529893A89B901BA
:101B00000E94BE149C838B838B819C81009709F477
:101B100099C0EB81FC812789308D8A859B8501974F
:101B2000820F931F9A8389838B819C8128853985B5
:101B3000EB89FC89AA85BB85B9014E859F018D0182
:101B40000E94A31389819A812E813F814C855D85F6
:101B5000B9010E940706EB81FC81918380838F8508
:101B60009889009731F0EF85F8898B819C8191836A
:101B700080830FB6F8940F9280911F038F5F80933C
:101B80001F0380911C0390911D03009769F48B81C2
:101B90009C8190931D0380931C0380911F038130CF
:101BA000A9F40E94FA1312C080912403882371F4CF
:101BB000E0911C03F0911D0396898E85891730F002
:101BC0008B819C8190931D0380931C03EB81FC818E
:101BD000968980912203891728F4EB81FC818689FC
:101BE00080932203809129038F5F80932903EB81E7
:101BF000FC81968980912303891728F4EB81FC816D
:101C0000868980932303EB81FC818689282F30E02D
:101C1000C901880F991F880F991F880F991F820F7C
:101C2000931FAC01465D5C4F8B819C819C012E5FB4
:101C30003F4FCA01B9010E94060581E08D830F90D4
:101C40000FBE02C08FEF8D838D81813071F4809142
:101C50002403882351F0E0911C03F0911D03968921
:101C60008E85981710F40E94C6078D8164960FB672
:101C7000F894DEBF0FBECDBFCF91DF911F910F91C2
:101C8000FF90EF90DF90CF90BF90AF900895DF93DB
:101C9000CF9300D000D000D0CDB7DEB79C838B832C
:101CA0000FB6F8940F9220911C0330911D038B8185
:101CB0009C818217930711F41C821B828B819C816B
:101CC000009739F480911C0390911D039E838D83AE
:101CD00004C08B819C819E838D838D819E819A839C
:101CE000898389819A8102960E94BE05E981FA81E1
:101CF00084899589009729F089819A810C960E94A0
:101D0000BE0589819A819C012E5F3F4F86E793E053
:101D1000B9010E94060580911E038F5F80931E0308
:101D2000809129038F5F809329030F900FBE8091CC
:101D30002403882331F08B819C81009711F40E9449
:101D4000C60726960FB6F894DEBF0FBECDBFCF9163
:101D5000DF910895DF93CF93CDB7DEB728970FB605
:101D6000F894DEBF0FBECDBF9E838D8378876F83CF
:101D700019820E947510ED81FE81208131818F8151
:101D80009885820F931F9C838B83ED81FE81208138
:101D90003181809120039091210382179307A8F449
:101DA000ED81FE81208131818B819C818217930797
:101DB00000F520912003309121038B819C8128170D
:101DC0003907B8F481E0898314C0ED81FE81208158
:101DD00031818B819C818217930748F020912003E9
:101DE000309121038B819C812817390710F481E001
:101DF0008983ED81FE818B819C81918380838981A0
:101E0000882359F080911C0390911D0302960E9433
:101E1000BE058B819C810E9475140E9481108A836B
:101E20008A81882311F40E94C60728960FB6F89479
:101E3000DEBF0FBECDBFCF91DF910895DF93CF936B
:101E400000D000D00F92CDB7DEB79D838C8319826E
:101E50008C819D810097D1F00E9475102091200304
:101E6000309121038C819D81820F931F9B838A83F4
:101E700080911C0390911D0302960E94BE058A81E9
:101E80009B810E9475140E94811089838981882317
:101E900011F40E94C6070F900F900F900F900F90B3
:101EA000CF91DF910895DF93CF93CDB7DEB727971A
:101EB0000FB6F894DEBF0FBECDBF9D838C830FB6E7
:101EC000F8940F928C819D81009739F480911C03C6
:101ED00090911D039F838E8304C08C819D819F837D
:101EE0008E838E819F819B838A83EA81FB81868991
:101EF00089830F900FBE898127960FB6F894DEBFB5
:101F00000FBECDBFCF91DF910895DF93CF93CDB7B3
:101F1000DEB729970FB6F894DEBF0FBECDBF9E8304
:101F20008D836F8319828F81853010F084E08F83D9
:101F30000FB6F8940F9220911C0330911D038D81F0
:101F40009E818217930711F41E821D828D819E81CE
:101F5000009739F480911C0390911D03998788871D
:101F600004C08D819E8199878887888599859C8307
:101F70008B83EB81FC8186898A839A818F81981774
:101F800009F465C09F818A81891738F48D819E810B
:101F9000009749F081E0898306C08D819E8100977A
:101FA00011F481E08983EB81FC818F81868B8F81A5
:101FB000282F30E085E090E0821B930BEB81FC81C1
:101FC00095878487EB81FC81428553858A81282F00
:101FD00030E0C901880F991F880F991F880F991F3A
:101FE000820F931F865D9C4F4817590759F58B81C7
:101FF0009C8102960E94BE05EB81FC8196898091AE
:102000002303891728F4EB81FC81868980932303BD
:10201000EB81FC818689282F30E0C901880F991F48
:10202000880F991F880F991F820F931FAC01465D7F
:102030005C4F8B819C819C012E5F3F4FCA01B9018F
:102040000E9406058981813011F40E94C6070F9015
:102050000FBE29960FB6F894DEBF0FBECDBFCF914D
:10206000DF910895AF92BF92CF92DF92EF92FF92ED
:102070000F93DF93CF930F92CDB7DEB729E730E010
:1020800089E993E1B90145E550E020E030E000E066
:10209000EE24FF24CC24DD24AA24BB240E945A0D64
:1020A00089838981813051F4F89481E080932403FD
:1020B00010922103109220030E948A070F90CF9163
:1020C000DF910F91FF90EF90DF90CF90BF90AF9096
:1020D0000895DF93CF93CDB7DEB7F8941092240321
:1020E0000E94BF07CF91DF910895DF93CF93CDB7C3
:1020F000DEB7809125038F5F80932503CF91DF9119
:102100000895DF93CF9300D000D0CDB7DEB71A8209
:102110000FB6F8940F928091250381508093250388
:1021200080912503882309F06CC080911F038823C8
:1021300009F467C0198241C0E0917203F091730302
:10214000868197819C838B838B819C810C960E94D6
:10215000BE058B819C8102960E94BE05EB81FC81AD
:10216000968980912303891728F4EB81FC81868965
:1021700080932303EB81FC818689282F30E0C901FD
:10218000880F991F880F991F880F991F820F931F1F
:10219000865D9C4F2B813C812E5F3F4FB9010E9491
:1021A0000605EB81FC819689E0911C03F0911D03EB
:1021B0008689981710F081E0898380916D038823C8
:1021C00009F0BACF80912603882371F007C00E94DE
:1021D000401180912603815080932603809126032D
:1021E0008823A9F781E089838981813021F080915A
:1021F0002703813031F481E08A83109227030E9403
:10220000C6070F900FBE8A810F900F900F900F900E
:10221000CF91DF910895DF93CF9300D0CDB7DEB794
:102220000FB6F8940F9280912003909121039A8326
:1022300089830F900FBE89819A810F900F90CF9163
:10224000DF910895DF93CF9300D00F92CDB7DEB723
:10225000198280912003909121039B838A838A8134
:102260009B810F900F900F90CF91DF910895DF9396
:10227000CF93CDB7DEB780911F03CF91DF91089543
:10228000DF93CF9300D000D000D0CDB7DEB78091E0
:102290002503882309F0BBC080912003909121037E
:1022A00001969093210380932003809120039091C5
:1022B00021030097D1F58091690390916A039C8373
:1022C0008B8380916B0390916C0390936A0380934E
:1022D00069038B819C8190936C0380936B03809145
:1022E00028038F5F80932803E0916903F0916A03CC
:1022F0008081882339F48FEF9FEF90937F00809344
:102300007E0013C0E0916903F0916A030580F681B5
:10231000E02D868197819E838D83ED81FE81828170
:10232000938190937F0080937E00209120033091D1
:10233000210380917E0090917F002817390708F4CF
:102340006BC0E0916903F0916A038081882339F4BE
:102350008FEF9FEF90937F0080937E005DC0E091B0
:102360006903F0916A030580F681E02D86819781EB
:102370009E838D83ED81FE81828193819A838983FF
:10238000209120033091210389819A8128173907F0
:1023900038F489819A8190937F0080937E003CC0BD
:1023A0008D819E8102960E94BE05ED81FE81848909
:1023B0009589009729F08D819E810C960E94BE051B
:1023C000ED81FE81968980912303891728F4ED81A0
:1023D000FE81868980932303ED81FE818689282FE3
:1023E00030E0C901880F991F880F991F880F991F26
:1023F000820F931FAC01465D5C4F8D819E819C01D5
:102400002E5F3F4FCA01B9010E9406059ACF809105
:1024100026038F5F8093260326960FB6F894DEBFBF
:102420000FBECDBFCF91DF910895DF93CF9300D042
:10243000CDB7DEB780912503882349F081E08093F2
:10244000270354C0809123038150809323038091FC
:102450002303282F30E0C901880F991F880F991F87
:10246000880F991F820F931FFC01E65DFC4F80814E
:10247000882341F380912303282F30E0C901880F7E
:10248000991F880F991F880F991F820F931F865DD0
:102490009C4F9A838983E981FA810180F281E02D42
:1024A00082819381E981FA8192838183E981FA8132
:1024B0002181328189819A8103962817390759F43D
:1024C000E981FA810180F281E02D82819381E981A5
:1024D000FA8192838183E981FA810180F281E02D82
:1024E0008681978190931D0380931C030F900F901A
:1024F000CF91DF910895DF93CF9300D000D000D02B
:10250000CDB7DEB79C838B837E836D834B815C81EB
:1025100080911C0390911D039C01245F3F4FCA01D1
:10252000B9010E94520580911C0390911D030296EF
:102530000E94BE0520912003309121038D819E8150
:10254000820F931F9A83898389819A810E947514CF
:1025500026960FB6F894DEBF0FBECDBFCF91DF91A8
:102560000895DF93CF9300D000D00F92CDB7DEB7A0
:102570009D838C83EC81FD810580F681E02D868131
:1025800097819B838A838A819B810C960E94BE05DA
:1025900080912503882361F58A819B8102960E94A0
:1025A000BE05EA81FB81968980912303891728F46F
:1025B000EA81FB81868980932303EA81FB818689F6
:1025C000282F30E0C901880F991F880F991F880FA5
:1025D000991F820F931FAC01465D5C4F8A819B81DE
:1025E0009C012E5F3F4FCA01B9010E9406050AC037
:1025F0008A819B819C01245F3F4F8DE693E0B90166
:102600000E940605EA81FB819689E0911C03F09106
:102610001D038689981718F081E0898301C019820B
:1026200089810F900F900F900F900F90CF91DF91B5
:102630000895DF93CF9300D0CDB7DEB79A83898317
:1026400080912803E981FA81808380912003909111
:102650002103E981FA81928381830F900F90CF91BA
:10266000DF910895DF93CF9300D000D00F92CDB7C4
:10267000DEB79B838A837D836C830FB6F8940F92B9
:10268000EA81FB81908180912803981771F0EA819B
:10269000FB81218132818091200390912103821757
:1026A000930718F081E089832FC020912003309197
:1026B0002103EA81FB8181819281281B390BEC8106
:1026C000FD818081918128173907E0F4EC81FD813B
:1026D00040815181EA81FB812181328180912003F7
:1026E00090912103B901681B790BCB01840F951FD1
:1026F000EC81FD81918380838A819B810E941913E3
:10270000198202C081E089830F900FBE89810F90EA
:102710000F900F900F900F90CF91DF910895DF935E
:10272000CF93CDB7DEB781E080932703CF91DF91C0
:102730000895DF93CF9300D0CDB7DEB79A83898316
:102740000E943714FDCF0F931F93DF93CF93CDB724
:10275000DEB729970FB6F894DEBF0FBECDBF9A83C0
:1027600089837C836B834D833F832E8319870887FE
:1027700089819A8149962B813C81B90148E050E0DA
:102780000E943415E981FA8110A28D81853010F004
:1027900084E08D83E981FA818D81868B89819A819C
:1027A00002960E94F60489819A810C960E94F60492
:1027B000E981FA8189819A81918780878D81282F8B
:1027C00030E085E090E0821B930BE981FA819587E8
:1027D0008487E981FA8189819A81938B828B2996FA
:1027E0000FB6F894DEBF0FBECDBFCF91DF911F9122
:1027F0000F910895DF93CF930F92CDB7DEB7198273
:1028000013C08981282F30E0C901880F991F880FD4
:10281000991F880F991F820F931F865D9C4F0E94FE
:10282000CC0489818F5F89838981853050F387E566
:1028300093E00E94CC0480E693E00E94CC048DE6F5
:1028400093E00E94CC0486E793E00E94CC0487E5E5
:1028500093E090936A038093690380E693E09093FA
:102860006C0380936B030F90CF91DF910895DF93FA
:10287000CF9300D00F92CDB7DEB780911E0388238F
:1028800071F10E947510809176031B82882311F4E8
:1028900081E08B830E9481108B81882301F50FB624
:1028A000F8940F92E0917B03F0917C0386819781ED
:1028B0009A83898389819A8102960E94BE058091BC
:1028C0001F03815080931F0380911E0381508093CA
:1028D0001E030F900FBE89819A810E940E150F90E2
:1028E0000F900F90CF91DF910895DF93CF9300D099
:1028F000CDB7DEB79A838983E0911C03F0911D0365
:1029000089819A81938382832091200330912103CE
:1029100089819A818217930770F480916B0390915B
:102920006C0320911C0330911D032E5F3F4FB901B2
:102930000E9452051EC04091690350916A03809124
:102940001C0390911D039C012E5F3F4FCA01B901EA
:102950000E94520520917E0030917F0089819A81EA
:102960008217930730F489819A8190937F00809336
:102970007E000F900F90CF91DF910895DF93CF935A
:10298000CDB7DEB728970FB6F894DEBF0FBECDBF28
:102990009C838B837E836D8381E290E00E94600440
:1029A0009A83898389819A81009769F18D819E81BB
:1029B000009739F48B819C810E94600498878F83F3
:1029C00004C08D819E8198878F83E981FA818F81F0
:1029D0009885908F878BE981FA818789908D009700
:1029E00039F489819A810E94A6041A8219820BC047
:1029F000E981FA818789908D2B813C8165EA70E0BD
:102A0000A9010E942D1589819A8128960FB6F89404
:102A1000DEBF0FBECDBFCF91DF910895DF93CF937F
:102A200000D0CDB7DEB79A838983E981FA8187899F
:102A3000908D0E94A60489819A810E94A6040F901D
:102A40000F90CF91DF910895FB01DC0102C001904E
:102A50000D9241505040D8F70895DC0101C06D93AC
:102A600041505040E0F70895FB01DC0141505040D7
:102A700048F001900D920020C9F701C01D9241500D
:0A2A80005040E0F70895F894FFCFEE
:102A8A004C65642032005075736820427574746F07
:102A9A006E2032004C6564200049444C4500FFFF1B
:00000001FF
